:020000040000FA
:100000008A11E82FFF1B0C2883137F188317000821
:10001000840A0319FF0A080000308A000408840AD1
:100020008207003445346E34763469346134643484
:040030006F340034F5
:1007BE00831203138701F03083160313870083120D
:1007CE0003138501860187010630831603139F00EC
:1007DE0008007E088A007F0882008A11F0238A11A1
:1007EE008000840A04087D0603190034FF0A0319E9
:1007FE00FE0AF42B83120313CF0068144F08CE00A9
:10080E0004300310CE0CFF3E031D082C4E088A1137
:10081E0001258A11831203134F088A1101258A11AB
:10082E000800783083120313CC004C08CD00272C1F
:10083E008A1110278A1183120313CC004C08CD00A5
:10084E0078304D0603192C2C2D2C1F2C8A111027B5
:10085E008A11783A031D342C352C2D2C8312031358
:10086E004D0808002F34003445346C3420344134A4
:10087E004434433420347934203465346C34203499
:10088E00553441345234543420344A346F34733432
:10089E00653420345234643467347A3420347934F5
:1008AE0020344B34613472346C346134203452341D
:1008BE006534793465347334003483120313D000F5
:1008CE0068105008CE0004300310CE0CFF3E031DFE
:1008DE006B2C4E088A1101258A11831203135008BE
:1008EE008A1101258A118312031350030319802CD8
:1008FE00812C872C02305006031D862C872C912CC0
:10090E00153083120313CF00C630CE00CE0B8D2CC4
:10091E00CF0B8D2C080083120313D400AE2C540879
:10092E00BF3E8A1164248A11C12C5408933E8A1149
:10093E0064248A11C12C5408D33E8A1164248A116E
:10094E00C12C54087F3E8A1164248A11C12C51088F
:10095E00D200D3015308003A0319B62CA82C520822
:10096E00023A0319962C013A03199C2C073A0319E3
:10097E00A22CA82C080083120313D1016814F12CA9
:10098E0051084E0784004F0803184F0AFF008A11C2
:10099E0002208A11D00004300310D00CFF3E031D3C
:1009AE00D32C50088A1101258A1183120313510882
:1009BE004E0784004F0803184F0AFF008A110220C9
:1009CE008A118A1101258A11013083120313D00076
:1009DE005008D10751084E0784004F0803184F0ADC
:1009EE00FF008A1102208A11003A031DFF2C002DF0
:1009FE00C72C080083120313CD006818072D0B2D8A
:100A0E008312031305140E2D8312031305104D08C4
:100A1E000139CB00CB0E06084B06EF394B0686008C
:100A2E004D08CB0003104B0C0139CC00CC0ECC0D75
:100A3E0006084C06DF394C0686004D08CB00023006
:100A4E000310CB0CFF3E031D272D4B080139CC00A4
:100A5E00CC0ECC0DCC0D06084C06BF394C068600CC
:100A6E004D08CB0003300310CB0CFF3E031D3A2D77
:100A7E004B080139CC00CC0CCC0C06084C067F3947
:100A8E004C06860005114B2D4C2D4D2D4E2D8312EF
:100A9E0003130515522D532D542D552D831203136B
:100AAE0005119F3083120313CB005D2DCB0B5C2DF4
:100ABE00602D0000080083120313D101D10A01300A
:100ACE008A1192248A11223083120313CE00003031
:100ADE00CF008A11C2248A11033083120313D70068
:100AEE000830D6007630D500D50B7B2DD60B7B2D5E
:100AFE00D70B7B2D822D83120313D801D901183009
:100B0E008A1164248A11023083120313D700A03095
:100B1E00D6009230D500D50B922DD60B922DD70B39
:100B2E00922D013083120313D8070318D90A00300F
:100B3E00D9075908803AFF0080307F02031DA92D86
:100B4E0028305802031CAC2DAD2D862D0330831298
:100B5E000313D7000830D6007630D500D50BB52D4F
:100B6E00D60BB52DD70BB52DBC2D01308A116424B3
:100B7E008A1183120313D101D10A01308A119224F2
:100B8E008A11080083120313DD01DE018A11DF23AF
:100B9E008A118A1153268A118A1162258A111530FB
:100BAE0083120313DC004B30DB00BE30DA00DA0BAD
:100BBE00DE2DDB0BDE2DDC0BDE2D83120313D101BC
:100BCE00D10A01308A1192248A111530831203132F
:100BDE00DC004B30DB00BE30DA00DA0BF42DDB0B21
:100BEE00F42DDC0BF42D831203135E08803AFF0004
:100BFE0080307F02031D052E04305D020318082E7F
:100C0E00092E3F2E8A1118248A1183120313DA003B
:100C1E005A08DF003D305F060319162E172E322EAE
:100C2E0041305F0603191C2E1D2E322E5F088A11CD
:100C3E0001248A11831203135F08DA005D08603EF7
:100C4E0084005A08831380000130DD070318DE0A82
:100C5E000030DE07EC2D41305F06031D372E382E97
:100C6E00EC2DDD01DE0101308A1164248A11EC2D98
:100C7E0083120313DD01DE0120308A1101248A1153
:100C8E00013083120313CE008030CF008A11C224AC
:100C9E008A11EC2D8A110028831203136810051097
:100CAE00851005110612861206138613831603137A
:100CBE0005108510051106128612061386130230D2
:100CCE0083120313D300A030D2009230D100D10B87
:100CDE006E2ED20B6E2ED30B6E2E03308A11642421
:100CEE008A11343083120313D200F130D100D10BAC
:100CFE007E2ED20B7E2E000003308A1164248A11C0
:100D0E00343083120313D200F130D100D10B8D2E6B
:100D1E00D20B8D2E000003308A1164248A113430D8
:100D2E0083120313D200F130D100D10B9C2ED20BC3
:100D3E009C2E000002308A1164248A1134308312F2
:100D4E000313D200F130D100D10BAB2ED20BAB2E50
:100D5E00000028308A1164248A1103308312031391
:100D6E00D3000830D2007630D100D10BBC2ED20B7E
:100D7E00BC2ED30BBC2EC32E0C308A1164248A11C8
:100D8E00033083120313D3000830D2007630D10023
:100D9E00D10BCF2ED20BCF2ED30BCF2ED62E013082
:100DAE008A1164248A11033083120313D30008308E
:100DBE00D2007630D100D10BE22ED20BE22ED30B25
:100DCE00E22EE92E06308A1164248A110330831232
:100DDE000313D3000830D2007630D100D10BF52E9C
:100DEE00D20BF52ED30BF52EFC2E0F308A11642468
:100DFE008A11033083120313D3000830D2007630E9
:100E0E00D100D10B082FD20B082FD30B082F0F2F89
:100E1E0008008312031387150711871007104F3030
:100E2E0083120313CB00CB0B1A2F00008312031374
:100E3E00871D222F232F472F0719262F272F472FA6
:100E4E0087182A2F2B2F472F07182E2F2F2F472F7C
:100E5E00851D322F332F352F4130E72F051E382FAA
:100E6E00392F3B2F3030E72F851E3E2F3F2F412F3E
:100E7E003D30E72F071E442F452F472F2B30E72FEE
:100E8E0087110715871007104F3083120313CB00FD
:100E9E00CB0B4F2F0000831203138719572F582F98
:100EAE007C2F071D5B2F5C2F7C2F87185F2F602FE9
:100EBE007C2F0718632F642F7C2F851D672F682FBB
:100ECE006A2F3130E72F051E6D2F6E2F702F3230A7
:100EDE00E72F851E732F742F762F3330E72F071EC3
:100EEE00792F7A2F7C2F2E30E72F87110711871439
:100EFE0007104F3083120313CB00CB0B842F00004F
:100F0E008312031387198C2F8D2FB12F0719902F52
:100F1E00912FB12F871C942F952FB12F0718982F33
:100F2E00992FB12F851D9C2F9D2F9F2F3430E72F8A
:100F3E00051EA22FA32FA52F3530E72F851EA82F14
:100F4E00A92FAB2F3630E72F071EAE2FAF2FB12FA5
:100F5E002A30E72F87110711871007144F3083129D
:100F6E000313CB00CB0BB92F000083120313871989
:100F7E00C12FC22FE62F0719C52FC62FE62F8718B0
:100F8E00C92FCA2FE62F071CCD2FCE2FE62F851D7A
:100F9E00D12FD22FD42F3730E72F051ED72FD82F92
:100FAE00DA2F3830E72F851EDD2FDE2FE02F393078
:100FBE00E72F071EE32FE42FE62F2F30E72F783091
:100FCE00080083134B30FD000430FE003930FF0063
:100FDE00203084008A11F4238A11E001E101E2013C
:100FEE00E301E401E501E601E701E80183018A116D
:020FFE00C92DFB
:00000001FF
