:020000040000FA
:100000008A11F62F00308A000408840A820700341F
:1000100045346E3476346934613464346F3400347A
:10095A00831203138701F03083160313870083126F
:10096A0003138501860187010630831603139F004E
:10097A00080083120313A40034142408A3000430CB
:10098A000310A30CFF3E031DC52C23088A118825DA
:10099A008A118312031324088A1188258A110800F0
:1009AA00783083120313A1002108A200E42C8A11D3
:1009BA001E278A1183120313A1002108A20078308E
:1009CA0022060319E92CEA2CDC2C8A111E278A112B
:1009DA00783A031DF12CF22CEA2C83120313220815
:1009EA00080083120313A50034102508A30004305D
:1009FA000310A30CFF3E031DFD2C23088A11882532
:100A0A008A118312031325088A1188258A118312F1
:100A1A00031325030319122D132D192D0230250650
:100A2A00031D182D192D232D153083120313A4002D
:100A3A00C630A300A30B1F2DA40B1F2D0800831281
:100A4A000313A900402D2908BF3E8A11F6248A11F2
:100A5A00532D2908933E8A11F6248A11532D290809
:100A6A00D33E8A11F6248A11532D29087F3E8A1112
:100A7A00F6248A11532D2608A700A8012808003A4F
:100A8A000319482D3A2D2708023A0319282D013A4D
:100A9A0003192E2D073A0319342D3A2D0800831213
:100AAA000313A400A50134147C2D2508240784000F
:100ABA008A1102208A11A30004300310A30CFF3EFE
:100ACA00031D622D23088A1188258A1183120313B4
:100ADA002508240784008A1102208A118A11882590
:100AEA008A11013083120313A3002308A5072508DE
:100AFA00240784008A1102208A11003A031D862DD8
:100B0A00872D5A2D080083120313A20034188E2D44
:100B1A00922D831203130514952D831203130510C6
:100B2A0022080139A000A00E06082006EF39200687
:100B3A0086002208A0000310200C0139A100A10E92
:100B4A00A10D06082106DF39210686002208A00029
:100B5A0002300310A00CFF3E031DAE2D2008013900
:100B6A00A100A10EA10DA10D06082106BF3921067B
:100B7A0086002208A00003300310A00CFF3E031DCC
:100B8A00C12D20080139A100A10CA10C06082106DB
:100B9A007F39210686000511D22DD32DD42DD52DCE
:100BAA00831203130515D92DDA2DDB2DDC2D8312C3
:100BBA00031305119F3083120313A000E42DA00B29
:100BCA00E32DE72D0000080083120313AD01AE01E7
:100BDA008A11AD248A118A1161268A11831203139C
:100BEA00A601A60A01308A1124258A11153083121A
:100BFA000313AC004B30AB00BE30AA00AA0B032E85
:100C0A00AB0B032EAC0B032E831203132E08803A70
:100C1A00FF0080307F02031D142E04302D020318BA
:100C2A00172E182E4E2E8A11D5248A1183120313D9
:100C3A00AA002A08AF003D302F060319252E262EBA
:100C4A00412E41302F0603192B2E2C2E412E2F0810
:100C5A008A11BE248A11831203132F08AA002D08B1
:100C6A00303E84002A08831380000130AD07031840
:100C7A00AE0A0030AE07FB2D41302F06031D462E6B
:100C8A00472EFB2DAD01AE0101308A11F6248A11DF
:100C9A00FB2D83120313AD01AE010230AA002A080C
:100CAA00A60001308A1124258A1101308A1154259F
:100CBA008A11FB2D8A1100288312031334100510A0
:100CCA00851005110612861206138613831603135E
:100CDA0005108510051106128612061386130230B6
:100CEA0083120313A800A030A7009230A600A60B17
:100CFA007C2EA70B7C2EA80B7C2E03308A11F6249F
:100D0A008A11343083120313A700F130A600A60B10
:100D1A008C2EA70B8C2E000003308A11F6248A1120
:100D2A00343083120313A700F130A600A60B9B2EC2
:100D3A00A70B9B2E000003308A11F6248A11343047
:100D4A0083120313A700F130A600A60BAA2EA70B45
:100D5A00AA2E000002308A11F6248A113430831236
:100D6A000313A700F130A600A60BB92EA70BB92EC4
:100D7A00000028308A11F6248A11033083120313E3
:100D8A00A8000830A7007630A600A60BCA2EA70B2B
:100D9A00CA2EA80BCA2ED12E0C308A11F6248A111B
:100DAA00033083120313A8000830A7007630A60088
:100DBA00A60BDD2EA70BDD2EA80BDD2EE42E0130AF
:100DCA008A11F6248A11033083120313A80008300B
:100DDA00A7007630A600A60BF02EA70BF02EA80BC4
:100DEA00F02EF72E06308A11F6248A110330831268
:100DFA000313A8000830A7007630A600A60B032F1D
:100E0A00A70B032FA80B032F0A2F0F308A11F624E2
:100E1A008A11033083120313A8000830A700763022
:100E2A00A600A60B162FA70B162FA80B162F1D2FE1
:100E3A0008008312031387150711871007104F3014
:100E4A0083120313A000A00B282F000083120313A0
:100E5A00871D302F312F552F0719342F352F552F36
:100E6A008718382F392F552F07183C2F3D2F552F0C
:100E7A00851D402F412F432F4130F52F051E462F48
:100E8A00472F492F3030F52F851E4C2F4D2F4F2FCE
:100E9A003D30F52F071E522F532F552F2B30F52F8C
:100EAA0087110715871007104F3083120313A0000C
:100EBA00A00B5D2F0000831203138719652F662F7D
:100ECA008A2F071D692F6A2F8A2F87186D2F6E2F79
:100EDA008A2F0718712F722F8A2F851D752F762F4B
:100EEA00782F3130F52F051E7B2F7C2F7E2F323045
:100EFA00F52F851E812F822F842F3330F52F071E61
:100F0A00872F882F8A2F2E30F52F871107118714E4
:100F1A0007104F3083120313A000A00B922F00007A
:100F2A008312031387199A2F9B2FBF2F07199E2FFE
:100F3A009F2FBF2F871CA22FA32FBF2F0718A62FC3
:100F4A00A72FBF2F851DAA2FAB2FAD2F3430F52F1A
:100F5A00051EB02FB12FB32F3530F52F851EB62FB2
:100F6A00B72FB92F3630F52F071EBC2FBD2FBF2F35
:100F7A002A30F52F87110711871007144F30831273
:100F8A000313A000A00BC72F0000831203138719B5
:100F9A00CF2FD02FF42F0719D32FD42FF42F871840
:100FAA00D72FD82FF42F071CDB2FDC2FF42F851D0A
:100FBA00DF2FE02FE22F3730F52F051EE52FE62F22
:100FCA00E82F3830F52F851EEB2FEC2FEE2F393016
:100FDA00F52F071EF12FF22FF42F2F30F52F78302F
:100FEA00080083120313B401B001B101B201B301C5
:060FFA0083018A11E92DBC
:00000001FF
