:020000040000FA
:040000008A11FA2F38
:100C6A00831203138701F03083160313870083125C
:100C7A00031305100630831603139F00080083121E
:100C8A000313A4002D142408A30004300310A30C9A
:100C9A00FF3E031D4B2E23088A11DC268A1183127C
:100CAA00031324088A11DC268A1108008A113526C2
:100CBA008A118A113D278A1183120313A601A60AF3
:100CCA0001308A11AC268A11153083120313AC0045
:100CDA004B30AB00BE30AA00AA0B712EAB0B712EA3
:100CEA00AC0B712E78308A1144268A11692E8A112A
:100CFA00002883120313A5002D102508A300043031
:100D0A000310A30CFF3E031D852E23088A11DC263F
:100D1A008A118312031325088A11DC268A11831289
:100D2A000313250303199A2E9B2EA12E02302506A2
:100D3A00031DA02EA12EAB2E153083120313A4007F
:100D4A00C630A300A30BA72EA40BA72E080083125C
:100D5A000313A900C82E2908BF3E8A117E268A11CC
:100D6A00DB2E2908933E8A117E268A11DB2E29085A
:100D7A00D33E8A117E268A11DB2E29087F3E8A11EC
:100D8A007E268A11DB2E2608A700A8012808003A29
:100D9A000319D02EC22E2708023A0319B02E013A9F
:100DAA000319B62E073A0319BC2EC22E0800831265
:100DBA000313A2002D18E22EE62E83120313051444
:100DCA00E92E83120313051022080139A000A00E90
:100DDA0006082006EF39200686002208A000031024
:100DEA00200C0139A100A10EA10D06082106DF3948
:100DFA00210686002208A00002300310A00CFF3E44
:100E0A00031D022F20080139A100A10EA10DA10D79
:100E1A0006082106BF39210686002208A0000330F1
:100E2A000310A00CFF3E031D152F20080139A10055
:100E3A00A10CA10C060821067F392106860005119E
:100E4A00262F272F282F292F8312031305152D2F1D
:100E5A002E2F2F2F302F8312031305119F30831249
:100E6A000313A000382FA00B372F3B2F00000800D8
:100E7A00831203132D100510851005110612861210
:100E8A00061386138316031305108510051106121F
:100E9A00861206138613023083120313A800A030A9
:100EAA00A7009230A600A60B582FA70B582FA80B05
:100EBA00582F03308A117E268A1134308312031385
:100ECA00A700F130A600A60B682FA70B682F000019
:100EDA0003308A117E268A11343083120313A70045
:100EEA00F130A600A60B772FA70B772F000003304F
:100EFA008A117E268A11343083120313A700F13037
:100F0A00A600A60B862FA70B862F000002308A1197
:100F1A007E268A11343083120313A700F130A6000B
:100F2A00A60B952FA70B952F000028308A117E2635
:100F3A008A11033083120313A8000830A700763001
:100F4A00A600A60BA62FA70BA62FA80BA62FAD2F80
:100F5A000C308A117E268A11033083120313A800EB
:100F6A000830A7007630A600A60BB92FA70BB92F19
:100F7A00A80BB92FC02F01308A117E268A1103309F
:100F8A0083120313A8000830A7007630A600A60B28
:100F9A00CC2FA70BCC2FA80BCC2FD32F06308A111E
:100FAA007E268A11033083120313A8000830A70093
:100FBA007630A600A60BDF2FA70BDF2FA80BDF2F9B
:100FCA00E62F0F308A117E268A110330831203130B
:100FDA00A8000830A7007630A600A60BF22FA70BB0
:100FEA00F22FA80BF22FF92F080083120313AD0179
:060FFA0083018A115B2E49
:00000001FF
