:020000040000FA
:100000008A11E82FFF1B0C2883137F188317000821
:10001000840A0319FF0A080000308A000408840AD1
:100020008207003433342E343134323456340034C1
:1000300031342E34323435345634003433342E34A3
:10004000373435345634003434342E343334373482
:100050005634003431342E34393437345634003485
:100060003634323435346D347634003452346534B9
:1000700063342034003432342E3435345634003472
:0E00800045346E347634003430345634003457
:10050E00831203138C1A8C2A8D2A8E2A872A8C1218
:10051E001A08080083120313CB000C124B08990023
:10052E008316031398189C2A9D2A9E2A972A080040
:10053E007E088A007F0882008A119F228A1180001D
:10054E00840A04087D0603190034FF0A0319FE0A03
:10055E00A32A83120313870185018601870183165F
:10056E000313071087100711871107160713871734
:10057E0005108510051106309F0008008312031325
:10058E00CF0068144F08CE0004300310CE0CFF3E8F
:10059E00031DCC2A4E088A1114248A1183120313C8
:1005AE004F088A1114248A1108007830831203131D
:1005BE00CC004C08CD00EB2A8A1137268A11831203
:1005CE000313CC004C08CD0078304D060319F02AE9
:1005DE00F12AE32A8A1137268A11783A031DF82A5E
:1005EE00F92AF12A831203134D0808008030831272
:1005FE0003139F008E30831603139F008312031381
:10060E000C135130831603138100831203138101DF
:10061E0083160313980183120313980198178316F8
:10062E00031318121815981683120313181619307F
:10063E0083160313990008008A1187228A118316E4
:10064E0003139E001E088A1191228A118A11872295
:10065E008A11831203139E001E088A1191228A1199
:10066E00831203131E08E500831603131E0883125C
:10067E000313E4002530CE008030CF008A11D5233D
:10068E008A118A110F278A1108002F34003445343D
:10069E006C3420344134443443342034793420349F
:1006AE0065346C342034553441345234543420344F
:1006BE004A346F34733465342034523464346734BE
:1006CE007A342034793420344B34613472346C34BF
:1006DE0061342034523465347934653473340034E3
:1006EE0083120313D00068105008CE00043003109C
:1006FE00CE0CFF3E031D7E2B4E088A1114248A1148
:10070E008312031350088A1114248A1183120313BF
:10071E0050030319932B942B9A2B02305006031D72
:10072E00992B9A2BA42B153083120313CF00C630AE
:10073E00CE00CE0BA02BCF0BA02B080083120313E1
:10074E00D400C12B5408BF3E8A1177238A11D42BB3
:10075E005408933E8A1177238A11D42B5408D33E22
:10076E008A1177238A11D42B54087F3E8A1177235E
:10077E008A11D42B5108D200D3015308003A031921
:10078E00C92BBB2B5208023A0319A92B013A0319A4
:10079E00AF2B073A0319B52BBB2B0800831203139B
:1007AE00D1016814042C51084E0784004F08031819
:1007BE004F0AFF008A1102208A11D0000430031064
:1007CE00D00CFF3E031DE62B50088A1114248A110B
:1007DE008312031351084E0784004F0803184F0A63
:1007EE00FF008A1102208A118A1114248A11013005
:1007FE0083120313D0005008D10751084E0784000E
:10080E004F0803184F0AFF008A1102208A11003A7E
:10081E00031D122C132CDA2B080083120313CD00A8
:10082E0068181A2C1E2C831203130514212C831204
:10083E00031305104D080139CB00CB0E06084B06ED
:10084E00EF394B0686004D08CB0003104B0C0139D7
:10085E00CC00CC0ECC0D06084C06DF394C068600BB
:10086E004D08CB0002300310CB0CFF3E031D3A2C7B
:10087E004B080139CC00CC0ECC0DCC0D06084C0625
:10088E00BF394C0686004D08CB0003300310CB0C4D
:10089E00FF3E031D4D2C4B080139CC00CC0CCC0C6B
:1008AE0006084C067F394C06860005115E2C5F2C1F
:1008BE00602C612C831203130515652C662C672C96
:1008CE00682C8312031305119F3083120313CB0080
:1008DE00702CCB0B6F2C732C0000080083120313AB
:1008EE00D101D10A01308A11A5238A112230831237
:1008FE000313CE000030CF008A11D5238A110330A6
:10090E0083120313D7000830D6007630D500D50BEE
:10091E008E2CD60B8E2CD70B8E2C952C831203136C
:10092E00D801D90118308A1177238A110230831227
:10093E000313D700A030D6009230D500D50BA52CCE
:10094E00D60BA52CD70BA52C013083120313D80779
:10095E000318D90A0030D9075908803AFF008030B1
:10096E007F02031DBC2C28305802031CBF2CC02C48
:10097E00992C033083120313D7000830D60076303B
:10098E00D500D50BC82CD60BC82CD70BC82CCF2C0A
:10099E0001308A1177238A1183120313D101D10AF0
:1009AE0001308A11A5238A11080083120313DD0179
:1009BE00DE018A11FD228A118A11B0228A118A1152
:1009CE007A258A118A1175248A1115308312031320
:1009DE00DC004B30DB00BE30DA00DA0BF42CDB0B24
:1009EE00F42CDC0BF42C83120313D101D10A013049
:1009FE008A11A5238A11153083120313DC004B30A4
:100A0E00DB00BE30DA00DA0B0A2DDB0B0A2DDC0B15
:100A1E000A2D8A1123238A11831203135E08803A4A
:100A2E00FF0080307F02031D1E2D04305D0203186F
:100A3E00212D222D582D8A11DC228A1183120313A7
:100A4E00DA005A08DF003D305F0603192F2D302DD6
:100A5E004B2D41305F060319352D362D4B2D5F087A
:100A6E008A11C5228A11831203135F08DA005D080A
:100A7E00603E84005A08831380000130DD0703189E
:100A8E00DE0A0030DE07692D41305F06031D502D52
:100A9E00512D692DDD01DE0101308A1177238A1176
:100AAE00692D83120313DD01DE0120308A11C52268
:100ABE008A112F3083120313CE008030CF008A119B
:100ACE00D5238A11153083120313DC004B30DB0063
:100ADE00BE30DA00DA0B712DDB0B712DDC0B712DB4
:100AEE00132D8A1100288312031368100510851028
:100AFE0005110612861206138613831603130510AC
:100B0E008510051106128612061386130230831203
:100B1E000313D300A030D2009230D100D10B952D0B
:100B2E00D20B952DD30B952D03308A1177238A1175
:100B3E00343083120313D200F130D100D10BA52D26
:100B4E00D20BA52D000003308A1177238A11343081
:100B5E0083120313D200F130D100D10BB42DD20B7E
:100B6E00B42D000003308A1177238A11343083129A
:100B7E000313D200F130D100D10BC32DD20BC32DF4
:100B8E00000002308A1177238A1134308312031346
:100B9E00D200F130D100D10BD22DD20BD22D0000CC
:100BAE0028308A1177238A11033083120313D3005E
:100BBE000830D2007630D100D10BE32DD20BE32DCD
:100BCE00D30BE32DEA2D0C308A1177238A110330D3
:100BDE0083120313D3000830D2007630D100D10B2C
:100BEE00F62DD20BF62DD30BF62DFD2D01308A11DD
:100BFE0077238A11033083120313D3000830D200F7
:100C0E007630D100D10B092ED20B092ED30B092E23
:100C1E00102E06308A1177238A11033083120313A4
:100C2E00D3000830D2007630D100D10B1C2ED20B5F
:100C3E001C2ED30B1C2E232E0F308A1177238A11D4
:100C4E00033083120313D3000830D2007630D10064
:100C5E00D10B2F2ED20B2F2ED30B2F2E362E08006C
:100C6E008312031387150711871007104F30831255
:100C7E000313CB00CB0B412E000083120313871DF1
:100C8E00492E4A2E6E2E07194D2E4E2E6E2E871879
:100C9E00512E522E6E2E0718552E562E6E2E851D47
:100CAE00592E5A2E5C2E41300E2F051E5F2E602EB1
:100CBE00622E30300E2F851E652E662E682E3D302C
:100CCE000E2F071E6B2E6C2E6E2E2B300E2F8711B5
:100CDE000715871007104F3083120313CB00CB0B71
:100CEE00762E00008312031387197E2E7F2EA32EDD
:100CFE00071D822E832EA32E8718862E872EA32EB7
:100D0E0007188A2E8B2EA32E851D8E2E8F2E912E9A
:100D1E0031300E2F051E942E952E972E32300E2F1B
:100D2E00851E9A2E9B2E9D2E33300E2F071EA02E23
:100D3E00A12EA32E2E300E2F871107118714071008
:100D4E004F3083120313CB00CB0BAB2E000083125C
:100D5E0003138719B32EB42ED82E0719B72EB82E1B
:100D6E00D82E871CBB2EBC2ED82E0718BF2EC02EF9
:100D7E00D82E851DC32EC42EC62E34300E2F051E22
:100D8E00C92ECA2ECC2E35300E2F851ECF2ED02E2C
:100D9E00D22E36300E2F071ED52ED62ED82E2A3016
:100DAE000E2F87110711871007144F30831203136C
:100DBE00CB00CB0BE02E0000831203138719E82E15
:100DCE00E92E0D2F0719EC2EED2E0D2F8718F02E74
:100DDE00F12E0D2F071CF42EF52E0D2F851DF82E3E
:100DEE00F92EFB2E37300E2F051EFE2EFF2E012F55
:100DFE0038300E2F851E042F052F072F39300E2F5A
:100E0E00071E0A2F0B2F0D2F2F300E2F78300800B4
:100E1E00831203136508803AFF0080307F02031DA2
:100E2E001A2F7F30640203181D2F1E2F272F3330E9
:100E3E0083120313CE008030CF008A11D5238A117E
:100E4E00831203136508803AFF0080307F02031D72
:100E5E00322F80306402031C352F362F3F2F1F3068
:100E6E0083120313CE008030CF008A11D5238A114E
:100E7E00831203136508803AFF0081307F02031D41
:100E8E004A2F00306402031C4D2F4E2F572F073070
:100E9E0083120313CE008030CF008A11D5238A111E
:100EAE00831203136508803AFF0081307F02031D11
:100EBE00622F61306402031C652F662F6F2F19306D
:100ECE0083120313CE008030CF008A11D5238A11EE
:100EDE00831203136508803AFF0082307F02031DE0
:100EEE007A2F00306402031C7D2F7E2F872F2A302D
:100EFE0083120313CE008030CF008A11D5238A11BE
:100F0E00831203136508803AFF0082307F02031DAF
:100F1E00922F80306402031C952F962F9F2F013045
:100F2E0083120313CE008030CF008A11D5238A118D
:100F3E00831203136508803AFF0083307F02031D7E
:100F4E00AA2F00306402031CAD2FAE2FB72F0D3029
:100F5E0083120313CE008030CF008A11D5238A115D
:100F6E00831203136508803AFF0083307F02031D4E
:100F7E00C22F7F306402031CC52FC62FCF2F133014
:100F8E0083120313CE008030CF008A11D5238A112D
:100F9E00831203136508803AFF0083307F02031D1E
:100FAE00DA2FFF306402031CDD2FDE2FE72F2C30EB
:100FBE0083120313CE008030CF008A11D5238A11FD
:100FCE00080083134B30FD000330FE004C30FF0051
:100FDE00203084008A11A3228A11E001E101E2018E
:100FEE00E301E401E501E601E701E80183018A116D
:020FFE00DC2CE9
:02400E00393D3A
:00000001FF
