:020000040000FA
:100000008A11E82FFF1B0C2883137F188317000821
:10001000840A0319FF0A080000308A000408840AD1
:100020008207003433342E343134323456340034C1
:1000300031342E34323435345634003433342E34A3
:10004000373435345634003434342E343334373482
:100050005634003431342E34393437345634003485
:100060003634323435346D347634003452346534B9
:1000700063342034003432342E3435345634003472
:0E00800045346E347634003430345634003457
:100764007E088A007F0882008A11B2238A118000E1
:10077400840A04087D0603190034FF0A0319FE0ADB
:10078400B62B831203138701850186018701831623
:10079400031307108710071187110716071387170C
:1007A40005108510051106309F00080083120313FD
:1007B400CF0068144F08CE0004300310CE0CFF3E67
:1007C400031DDF2B4E088A11FE248A1183120313A2
:1007D4004F088A11FE248A1108007830831203130B
:1007E400CC004C08CD00FE2B8A1110278A118312ED
:1007F4000313CC004C08CD0078304D060319032CAC
:10080400042CF62B8A1110278A11783A031D0B2C1D
:100814000C2C042C831203134D080800803083121F
:1008240003139F008E30831603139F008312031358
:100834000C135130831603138100831203138101B7
:1008440083160313980183120313980198178316D0
:100854000313181218159816831203131816193057
:1008640083160313990008002F34003445346C3484
:1008740020344134443443342034793420346534CE
:100884006C342034553441345234543420344A3492
:100894006F347334653420345234643467347A34B6
:1008A4002034793420344B34613472346C34613400
:1008B400203452346534793465347334003483120B
:1008C4000313D00068105008CE0004300310CE0C7F
:1008D400FF3E031D682C4E088A11FE248A118312E0
:1008E400031350088A11FE248A1183120313500340
:1008F40003197D2C7E2C842C02305006031D832C7E
:10090400842C8E2C153083120313CF00C630CE00F6
:10091400CE0B8A2CCF0B8A2C080083120313D4002D
:10092400AB2C5408BF3E8A1161248A11BE2C540892
:10093400933E8A1161248A11BE2C5408D33E8A1135
:1009440061248A11BE2C54087F3E8A1161248A11C5
:10095400BE2C5108D200D3015308003A0319B32C1A
:10096400A52C5208023A0319932C013A0319992C25
:10097400073A03199F2CA52C080083120313D101F5
:100984006814EE2C51084E0784004F0803184F0AD0
:10099400FF008A1102208A11D00004300310D00C09
:1009A400FF3E031DD02C50088A11FE248A118312A5
:1009B400031351084E0784004F0803184F0AFF0021
:1009C4008A1102208A118A11FE248A1101308312AD
:1009D4000313D0005008D10751084E0784004F0874
:1009E40003184F0AFF008A1102208A11003A031DDE
:1009F400FC2CFD2CC42C080083120313CD006818B2
:100A0400042D082D8312031305140B2D83120313D5
:100A140005104D080139CB00CB0E06084B06EF3903
:100A24004B0686004D08CB0003104B0C0139CC005B
:100A3400CC0ECC0D06084C06DF394C0686004D085A
:100A4400CB0002300310CB0CFF3E031D242D4B08BA
:100A54000139CC00CC0ECC0DCC0D06084C06BF39A8
:100A64004C0686004D08CB0003300310CB0CFF3E30
:100A7400031D372D4B080139CC00CC0CCC0C0608D7
:100A84004C067F394C0686000511482D492D4A2D08
:100A94004B2D8312031305154F2D502D512D522D1F
:100AA4008312031305119F3083120313CB005A2DB5
:100AB400CB0B592D5D2D0000080083120313D101C7
:100AC400D10A01308A118F248A1122308312031330
:100AD400CE000030CF008A11BF248A110330831264
:100AE4000313D7000830D6007630D500D50B782D07
:100AF400D60B782DD70B782D7F2D83120313D801B5
:100B0400D90118308A1161248A1102308312031327
:100B1400D700A030D6009230D500D50B8F2DD60B40
:100B24008F2DD70B8F2D013083120313D807031891
:100B3400D90A0030D9075908803AFF0080307F0273
:100B4400031DA62D28305802031CA92DAA2D832D80
:100B5400033083120313D7000830D6007630D50053
:100B6400D50BB22DD60BB22DD70BB22DB92D01302A
:100B74008A1161248A1183120313D101D10A01302D
:100B84008A118F248A11080083120313DD01DE0108
:100B94008A1110248A118A11C3238A118A115326B7
:100BA4008A118A115F258A11153083120313DC0020
:100BB4004B30DB00BE30DA00DA0BDE2DDB0BDE2D32
:100BC400DC0BDE2D83120313D101D10A01308A110B
:100BD4008F248A11153083120313DC004B30DB00A1
:100BE400BE30DA00DA0BF42DDB0BF42DDC0BF42D24
:100BF400831203135E08803AFF0080307F02031DD6
:100C0400052E04305D020318082E092E3F2E8A118A
:100C1400EF238A1183120313DA005A08DF003D30F0
:100C24005F060319162E172E322E41305F06031964
:100C34001C2E1D2E322E5F088A11D8238A1183128E
:100C440003135F08DA005D08603E84005A088313CA
:100C540080000130DD070318DE0A0030DE07EC2DCA
:100C640041305F06031D372E382EEC2DDD01DE01E9
:100C740001308A1161248A11EC2D83120313DD01E2
:100C8400DE0120308A11D8238A112F3083120313F6
:100C9400CE008030CF008A11BF248A11EC2D8A1136
:100CA400002883120313681005108510051106121D
:100CB4008612061386138316031305108510051177
:100CC4000612861206138613023083120313D3000E
:100CD400A030D2009230D100D10B6E2ED20B6E2EEA
:100CE400D30B6E2E03308A1161248A11343083129F
:100CF4000313D200F130D100D10B7E2ED20B7E2E05
:100D0400000003308A1161248A11343083120313E2
:100D1400D200F130D100D10B8D2ED20B8D2E0000DC
:100D240003308A1161248A11343083120313D200F0
:100D3400F130D100D10B9C2ED20B9C2E000002303E
:100D44008A1161248A11343083120313D200F130E2
:100D5400D100D10BAB2ED20BAB2E000028308A1160
:100D640061248A11033083120313D3000830D200A4
:100D74007630D100D10BBC2ED20BBC2ED30BBC2EA3
:100D8400C32E0C308A1161248A1103308312031399
:100D9400D3000830D2007630D100D10BCF2ED20B45
:100DA400CF2ED30BCF2ED62E01308A1161248A1177
:100DB400033083120313D3000830D2007630D100FD
:100DC400D10BE22ED20BE22ED30BE22EE92E06300B
:100DD4008A1161248A11033083120313D30008306B
:100DE400D2007630D100D10BF52ED20BF52ED30BD9
:100DF400F52EFC2E0F308A1161248A1103308312E0
:100E04000313D3000830D2007630D100D10B082F61
:100E1400D20B082FD30B082F0F2F080083120313B4
:100E240087150711871007104F3083120313CB0067
:100E3400CB0B1A2F000083120313871D222F232F9D
:100E4400472F0719262F272F472F87182A2F2B2F95
:100E5400472F07182E2F2F2F472F851D322F332F63
:100E6400352F4130E72F051E382F392F3B2F3030D7
:100E7400E72F851E3E2F3F2F412F3D30E72F071EC2
:100E8400442F452F472F2B30E72F87110715871045
:100E940007104F3083120313CB00CB0B4F2F0000EE
:100EA400831203138719572F582F7C2F071D5B2F8D
:100EB4005C2F7C2F87185F2F602F7C2F0718632FE0
:100EC400642F7C2F851D672F682F6A2F3130E72F01
:100ED400051E6D2F6E2F702F3230E72F851E732F56
:100EE400742F762F3330E72F071E792F7A2F7C2F1C
:100EF4002E30E72F87110711871407104F30831204
:100F04000313CB00CB0B842F000083120313871928
:100F14008C2F8D2FB12F0719902F912FB12F871C54
:100F2400942F952FB12F0718982F992FB12F851D26
:100F34009C2F9D2F9F2F3430E72F051EA22FA32F08
:100F4400A52F3530E72F851EA82FA92FAB2F3630BC
:100F5400E72F071EAE2FAF2FB12F2A30E72F8711AF
:100F64000711871007144F3083120313CB00CB0BE8
:100F7400B92F0000831203138719C12FC22FE62F44
:100F84000719C52FC62FE62F8718C92FCA2FE62F9A
:100F9400071CCD2FCE2FE62F851DD12FD22FD42F76
:100FA4003730E72F051ED72FD82FDA2F3830E72F09
:100FB400851EDD2FDE2FE02F3930E72F071EE32FAC
:100FC400E42FE62F2F30E72F7830080083134B30BF
:100FD400FD000430FE003630FF00203084008A110A
:100FE400B6238A11E001E101E201E301E401E50134
:0C0FF400E601E701E80183018A11C62D27
:02400E00393D3A
:00000001FF
