:020000040000FA
:040000008A11F72F3B
:100D5A00831203138C1AB22EB32EB42EAD2E8C121C
:100D6A001A08080083120313A4000C12240899001D
:100D7A00831603139818C22EC32EC42EBD2E080044
:100D8A008312031385018601870183160313051451
:100D9A0085100511071387178601080083120313AC
:100DAA009F121F129F111F140B3083120313A700E7
:100DBA006230A600A60BDF2EA70BDF2E83120313C9
:100DCA001F150C1BE92EEA2EEB2EE62E1F100C1314
:100DDA000800831603131E088A11B7268A118A117E
:100DEA00AD268A1183120313A500A6012508A200C5
:100DFA002608A3001E088A11B7268A118A11AD2671
:100E0A008A1183120313A500A6012508A200260849
:100E1A00A30008008030831203139F008E308316CC
:100E2A0003139F00831203130C1351308316031309
:100E3A00810083120313810183160313980183121D
:100E4A000313980198178316031318121815981686
:100E5A008312031318161930831603139900831289
:100E6A000313860108008A110F278A118A11C526E1
:100E7A008A11023083120313A4000030A5008A11DC
:100E8A00D3268A118A11EE268A11831203132108A6
:100E9A00803AFF0080307F02031D552F7F302002E9
:100EAA000318582F592F5C2F8312031386018312BC
:100EBA0003132108803AFF0080307F02031D672F49
:100ECA0080302002031C6A2F6B2F6F2F0130831290
:100EDA0003138600831203132108803AFF0081302E
:100EEA007F02031D7A2F00302002031C7D2F7E2FE4
:100EFA00822F0330831203138600831203132108FF
:100F0A00803AFF0081307F02031D8D2F7F3020023F
:100F1A00031C902F912F952F0730831203138600FD
:100F2A00831203132108803AFF0082307F02031DD7
:100F3A00A02F00302002031CA32FA42FA82F0F30AC
:100F4A00831203138600831203132108803AFF00D9
:100F5A0082307F02031DB32F80302002031CB62F7C
:100F6A00B72FBB2F1F30831203138600831203137C
:100F7A002108803AFF0083307F02031DC62F00300C
:100F8A002002031CC92FCA2FCE2F3F30831203130E
:100F9A008600831203132108803AFF0083307F0200
:100FAA00031DD92F7F302002031CDC2FDD2FE12FF8
:100FBA007F30831203138600831203132108803AB9
:100FCA00FF0083307F02031DEC2FFF302002031C39
:100FDA00EF2FF02F3E2FFF308312031386003E2F90
:100FEA008A11002883120313A001A101A201A301FF
:060FFA0083018A11382F6B
:02400E00353D3E
:00000001FF
