:020000040000FA
:040000008A11F72F3B
:10090A00831203138C1A8A2C8B2C8C2C852C8C1218
:10091A001A08080083120313A0000C122008990079
:10092A008316031398189A2C9B2C9C2C952C080040
:10093A0083120313850186018701831603130514A5
:10094A008510051107138717860108008312031300
:10095A009F121F129F111F140B3083120313A3003F
:10096A006230A200A20BB72CA30BB72C831203137D
:10097A001F150C1BC12CC22CC32CBE2C1F100C1310
:10098A000800831603131E088A118F248A118A11FC
:10099A0085248A1183120313A100A2012108BC0035
:1009AA002208BD001E088A118F248A118A11852403
:1009BA008A1183120313A100A2012108BC00220894
:1009CA00BD0008008030831203139F008E30831607
:1009DA0003139F00831203130C135130831603135E
:1009EA008100831203138101831603139801831272
:1009FA0003139801981783160313181218159816DB
:100A0A0083120313181619308316031399008312DD
:100A1A000313860108000030831203132E05B60063
:100A2A0000302F05B70080303005B8007F3031051F
:100A3A00B9003908380437043604031D252D262D3C
:100A4A002E2D0030B1000030B0000030AF00003071
:100A5A00AE0000303205B60000303305B7008030F2
:100A6A003405B8007F303505B90039083804370431
:100A7A003604031D412D422D4A2D0030B5000030A9
:100A8A00B4000030B3000030B200B11F4D2D4E2D1E
:100A9A00722D0030B6000030B7000030B800803048
:100AAA00B9002E08B6022F08031C2F0F5D2D5E2DEC
:100ABA00B7023008031C300F632D642DB8023108C9
:100ACA00031C310F692D6A2DB9023908B1003808A3
:100ADA00B0003708AF003608AE00B51F752D762D69
:100AEA009A2D0030B6000030B7000030B8008030D0
:100AFA00B9003208B6023308031C330F852D862D40
:100B0A00B7023408031C340F8B2D8C2DB80235081C
:100B1A00031C350F912D922DB9023908B5003808FA
:100B2A00B4003708B3003608B2008030B10680300E
:100B3A00B50635083102031DAC2D34083002031DF9
:100B4A00AC2D33082F02031DAC2D32082E020318D8
:100B5A00AF2DB02DB22D0310B32D0314080083124C
:100B6A000313A80028080319BB2DBC2DD02DA31FE1
:100B7A00BF2DC02DD02D2009AA002109AB002209C2
:100B8A00AC002309AD00AA0A0319AB0A0319AC0A7F
:100B9A000319AD0AD82D2308AD002208AC0021089C
:100BAA00AB002008AA002308220421042004031D04
:100BBA00DF2DE02DE92D0030A3000030A200003027
:100BCA00A1000030A0006F2E9630A4002408A900CE
:100BDA00FB2D0130A4002408A90701300310AD0C35
:100BEA00AC0CAB0CAA0CFF3E031DF32DFE302D05F9
:100BFA00031D002E012EEE2D1D2E0130A400240807
:100C0A00A9070130AA07003003180130AB070030EA
:100C1A0003180130AC07003003180130AD0701306A
:100C2A000310AD0CAC0CAB0CAA0CFF3E031D152E29
:100C3A00FF302D05031D222E232E022E2F2E0130CA
:100C4A00A9020130A4000310AA0DAB0DAC0DAD0D25
:100C5A00A40B282EAC1B322E332E392E0230290239
:100C6A000318382E392E242E29183C2E3D2E452EB7
:100C7A00FF30AA05FF30AB057F30AC05FF30AD056C
:100C8A000310A90C2908A400A501A601A701183080
:100C9A000310A40DA50DA60DA70DFF3E031D4D2E95
:100CAA002408AA042508AB042608AC042708AD04C6
:100CBA0028080319612E622E672EA31F652E662E41
:100CCA00672EAD172D08A3002C08A2002B08A1003F
:100CDA002A08A00008008A11E7248A118A119D2493
:100CEA008A11023083120313A0000030A1008A1176
:100CFA00AB248A118A11C6248A11831203133A0873
:100D0A00A0003B08A1000030A11BFF30A200A300F5
:100D1A0001308A11B4258A11831203132308B10002
:100D2A002208B0002108AF002008AE003F30B5000D
:100D3A002030B4000030B3000030B2008A11102510
:100D4A008A110318A92EAA2EAD2E83120313860127
:100D5A00831203133A08A0003B08A1000030A11B2C
:100D6A00FF30A200A30001308A11B4258A11831230
:100D7A0003132308B1002208B0002108AF0020089D
:100D8A00AE003F30B5002030B4000030B300003070
:100D9A00B2008A1110258A11031CD42ED52ED92E01
:100DAA000130831203138600831203133A08A0004A
:100DBA003B08A1000030A11BFF30A200A3000130B4
:100DCA008A11B4258A11831203132308B100220859
:100DDA00B0002108AF002008AE003F30B500A030B7
:100DEA00B4000030B3000030B2008A1110258A1115
:100DFA00031C002F012F052F0330831203138600D3
:100E0A00831203133A08A0003B08A1000030A11B7B
:100E1A00FF30A200A30001308A11B4258A1183127F
:100E2A0003132308B1002208B0002108AF002008EC
:100E3A00AE003F30B500EF30B4005C30B30029306B
:100E4A00B2008A1110258A11031C2C2F2D2F312F45
:100E5A000730831203138600831203133A08A00093
:100E6A003B08A1000030A11BFF30A200A300013003
:100E7A008A11B4258A11831203132308B1002208A8
:100E8A00B0002108AF002008AE004030B500203085
:100E9A00B4000030B3000030B2008A1110258A1164
:100EAA00031C582F592F5D2F0F308312031386000E
:100EBA00831203133A08A0003B08A1000030A11BCB
:100ECA00FF30A200A30001308A11B4258A118312CF
:100EDA0003132308B1002208B0002108AF0020083C
:100EEA00AE004030B5004730B400AE30B300143025
:100EFA00B2008A1110258A11031C842F852F892F8D
:100F0A001F30831203138600831203133A08A000CA
:100F1A003B08A1000030A11BFF30A200A300013052
:100F2A008A11B4258A11831203132308B1002208F7
:100F3A00B0002108AF002008AE004030B500703084
:100F4A00B4000030B3000030B2008A1110258A11B3
:100F5A00031CB02FB12FB52F3F3083120313860025
:100F6A00831203133A08A0003B08A1000030A11B1A
:100F7A00FF30A200A30001308A11B4258A1183121E
:100F8A0003132308B1002208B0002108AF0020088B
:100F9A00AE004030B5008B30B400D730B3000A3011
:100FAA00B2008A1110258A11031CDC2FDD2FE12FD4
:100FBA007F30831203138600831203133B08803A9F
:100FCA00FF0080307F02031DEC2F05303A02031C1C
:100FDA00EF2FF02F762EFF30831203138600762E22
:100FEA008A11002883120313BA01BB01BC01BD0197
:060FFA0083018A11702E34
:02400E00353D3E
:00000001FF
