:020000040000FA
:040000008A11F62F3C
:10057E0083120313A100A0013A3021020318C82AE6
:10058E00C92AD12A30302102031CCE2ACF2AD12AE1
:10059E00A001A00A200C080083120313A4003B1430
:1005AE002408A30004300310A30CFF3E031DDA2A17
:1005BE0023088A116F238A118312031324088A11C8
:1005CE006F238A11080083120313A401A501201CB6
:1005DE00F12AF22AF82A2208A4070318A50A2308EA
:1005EE00A50701300310A20DA30DFF3E031DF92A2E
:1005FE0001300310A10CA00CFF3E031D002B2008A0
:10060E002104031D0B2B0C2BEE2A2508A100240818
:10061E00A000080083120313A5003B102508A300B9
:10062E0004300310A30CFF3E031D182B23088A1160
:10063E006F238A118312031325088A116F238A11DF
:10064E0083120313250303192D2B2E2B342B02306B
:10065E002506031D332B342B3E2B1530831203132B
:10066E00A400C630A300A30B3A2BA40B3A2B080010
:10067E0083120313A9005B2B2908BF3E8A11112395
:10068E008A116E2B2908933E8A1111238A116E2B23
:10069E002908D33E8A1111238A116E2B29087F3E19
:1006AE008A1111238A116E2B2608A700A80128088B
:1006BE00003A0319632B552B2708023A0319432BD3
:1006CE00013A0319492B073A03194F2B552B0800F2
:1006DE0083120313A2003B18752B792B831203137D
:1006EE0087167C2B83120313871222080139A00070
:1006FE00A00DA00DA00D07082006F73920068700D3
:10070E002208A0000310200C0139A100A10DA10D9B
:10071E0007082106FB39210687002208A0000230B7
:10072E000310A00CFF3E031D972B20080139A100DA
:10073E00A10D07082106FD39210687002208A00019
:10074E0003300310A00CFF3E031DA82B0130200523
:10075E00A10007082106FE39210687000712B72BD4
:10076E00B82BB92BBA2B831203130716BE2BBF2B34
:10077E00C02BC12B8312031307129F308312031356
:10078E00A000C92BA00BC82BCC2B00000800831295
:10079E000313AD00D62B0130A8002808AD072D0895
:1007AE0084002030831300060319DE2BDF2BD22B9F
:1007BE002D088400093000060319E62BE72BD22BF7
:1007CE00AB01AC01AA012D0884002D300006031DDB
:1007DE00F12BF22BFB2B0130A8002808AA070130C1
:1007EE00A8002808AD072B2C2D0884002B300006FE
:1007FE00031D022C032C2B2C0130A8002808AD075A
:10080E002B2C831203132D0884002C08A1002B0817
:10081E00A0000A30A2000030A3008A11EA228A1139
:10082E0083130008831203132007A8000030031857
:10083E0001302107A9002808D03EAB002908031873
:10084E00013EFF3EAC00032C2D08840000088A11E7
:10085E00BF228A110318342C352C082C8312031353
:10086E002A0803193B2C3C2C482C2B09A8002C09D8
:10087E00A900A80A0319A90A2808A6002908A70092
:10088E004C2C2C08A7002B08A6000800831203137B
:10089E003B10871207128711071187100710831656
:1008AE0003138712071287110711871007100230E2
:1008BE0083120313A800A030A7009230A600A60B47
:1008CE00662CA70B662CA80B662C03308A111123FD
:1008DE008A11343083120313A700F130A600A60B41
:1008EE00762CA70B762C000003308A1111238A1167
:1008FE00343083120313A700F130A600A60B852C0B
:10090E00A70B852C000003308A1111238A11343075
:10091E0083120313A700F130A600A60B942CA70B8D
:10092E00942C000002308A1111238A113430831264
:10093E000313A700F130A600A60BA32CA70BA32C24
:10094E00000028308A1111238A11033083120313F9
:10095E00A8000830A7007630A600A60BB42CA70B73
:10096E00B42CA80BB42CBB2C0C308A1111238A1179
:10097E00033083120313A8000830A7007630A600B8
:10098E00A60BC72CA70BC72CA80BC72CCE2C01303F
:10099E008A1111238A11033083120313A800083021
:1009AE00A7007630A600A60BDA2CA70BDA2CA80B24
:1009BE00DA2CE12C06308A1111238A1103308312AE
:1009CE000313A8000830A7007630A600A60BED2C66
:1009DE00A70BED2CA80BED2CF42C0F308A11112344
:1009EE008A11033083120313A8000830A700763053
:1009FE00A600A60B002DA70B002DA80B002D072D72
:100A0E000800831203138601F03083160313860049
:100A1E0083120313B501B6017F30AE002E08831684
:100A2E00031381058A114D248A1183120313A60123
:100A3E00A60A01308A113F238A112A30831203132A
:100A4E00AE002E08B4002A30831203133406031DA1
:100A5E00312D322D822D6E30AE002E08B7003F2D77
:100A6E008A11E4258A1183120313AE002E08B700F3
:100A7E006E3037060319442D452D372D213037069C
:100A8E0003194A2D4B2D542D370803194F2D502D78
:100A9E00542D37088A11D3228A1183120313370873
:100AAE00031D5A2D5B2D632D37088A11D3228A110F
:100ABE0010308A1111238A112F3083120313370637
:100ACE00031D6A2D6B2D732D2F30AE002E08B40032
:100ADE0001308A1111238A11153083120313B000CD
:100AEE004B30AF00BE30AE00AE0B7B2DAF0B7B2D6F
:100AFE00B00B7B2D2A2D2F303406031D872D882D0C
:100B0E002A2D033035063604031D8E2D8F2DA32D71
:100B1E00B501B60138308A11CE238A118312031320
:100B2E002708B2002608B1003108AE002E08B30027
:100B3E0033088A11D3228A116E3083120313AE004A
:100B4E002E08B700B22D8A11E4258A1183120313E1
:100B5E00AE002E08B7006E3037060319B72DB82D2C
:100B6E00AA2D2A303706031DBD2DBE2DC22D2A30CB
:100B7E00AE002E08B4003608803AFF0080307F02A7
:100B8E00031DCB2D033035020318CE2DCF2DD92DBD
:100B9E00831203133708AE003508383E84002E0842
:100BAE0083138000013083120313B5070318B60AAE
:100BBE000030B607732D8A11002883120313061016
:100BCE00861406158615061AED2DEE2D092E06181D
:100BDE00F12DF22D092E053083120313A8000F30CC
:100BEE00A700F030A600A60BFA2DA70BFA2DA80B26
:100BFE00FA2D012E83120313061E062E072E012E2A
:100C0E003730F52F861A0C2E0D2E282E0618102E84
:100C1E00112E282E053083120313A8000F30A700C3
:100C2E00F030A600A60B192EA70B192EA80B192E05
:100C3E00202E83120313861E252E262E202E3830AC
:100C4E00F52F061B2B2E2C2E472E06182F2E302E50
:100C5E00472E053083120313A8000F30A700F03083
:100C6E00A600A60B382EA70B382EA80B382E3F2E1B
:100C7E0083120313061F442E452E3F2E3930F52FB7
:100C8E00861B4A2E4B2E662E06184E2E4F2E662E85
:100C9E00053083120313A8000F30A700F030A60012
:100CAE00A60B572EA70B572EA80B572E5E2E831270
:100CBE000313861F632E642E5E2E2F30F52F06141F
:100CCE00861006158615061A6D2E6E2E892E86181E
:100CDE00712E722E892E053083120313A8000F3049
:100CEE00A700F030A600A60B7A2EA70B7A2EA80B23
:100CFE007A2E812E83120313061E862E872E812EA8
:100D0E003430F52F861A8C2E8D2EA82E8618902E06
:100D1E00912EA82E053083120313A8000F30A700C2
:100D2E00F030A600A60B992EA70B992EA80B992E84
:100D3E00A02E83120313861EA52EA62EA02E3530AE
:100D4E00F52F061BAB2EAC2EC72E8618AF2EB02E4F
:100D5E00C72E053083120313A8000F30A700F03002
:100D6E00A600A60BB82EA70BB82EA80BB82EBF2E1A
:100D7E0083120313061FC42EC52EBF2E3630F52F39
:100D8E00861BCA2ECB2EE62E8618CE2ECF2EE62E04
:100D9E00053083120313A8000F30A700F030A60011
:100DAE00A60BD72EA70BD72EA80BD72EDE2E83126F
:100DBE000313861FE32EE42EDE2E2A30F52F0614A3
:100DCE00861406118615061AED2EEE2E092F06191B
:100DDE00F12EF22E092F053083120313A8000F30C7
:100DEE00A700F030A600A60BFA2EA70BFA2EA80B22
:100DFE00FA2E012F83120313061E062F072F012F23
:100E0E003130F52F861A0C2F0D2F282F0619102F83
:100E1E00112F282F053083120313A8000F30A700BF
:100E2E00F030A600A60B192FA70B192FA80B192F00
:100E3E00202F83120313861E252F262F202F3230AC
:100E4E00F52F061B2B2F2C2F472F06192F2F302F48
:100E5E00472F053083120313A8000F30A700F03080
:100E6E00A600A60B382FA70B382FA80B382F3F2F15
:100E7E0083120313061F442F452F3F2F3330F52FB8
:100E8E00861B4A2F4B2F6A2F06194E2F4F2F6A2F74
:100E9E0010308A1111238A11053083120313A80012
:100EAE000F30A700F030A600A60B5B2FA70B5B2F11
:100EBE00A80B5B2F622F83120313861F672F682FD9
:100ECE00622F2130F52F0614861406158611061A88
:100EDE00712F722F902F8619752F762F902F01302C
:100EEE008A1111238A11053083120313A8000F30C3
:100EFE00A700F030A600A60B822FA70B822FA80BFF
:100F0E00822F892F83120313861F8E2F8F2F892FE7
:100F1E00682F861A932F942FAF2F8619972F982FFD
:100F2E00AF2F053083120313A8000F30A700F03047
:100F3E00A600A60BA02FA70BA02FA80BA02FA72FA4
:100F4E0083120313861EAC2FAD2FA72F3030F52F33
:100F5E00061BB22FB32FD22F8619B62FB72FD22F33
:100F6E0010308A1111238A11053083120313A80041
:100F7E000F30A700F030A600A60BC32FA70BC32F70
:100F8E00A80BC32FCA2F83120313861FCF2FD02F68
:100F9E00CA2F0030F52F861BD52FD62FF42F86198A
:100FAE00D92FDA2FF42F14308A1111238A1105301C
:100FBE0083120313A8000F30A700F030A600A60B73
:100FCE00E62FA70BE62FA80BE62FED2F83120313A8
:100FDE00861FF22FF32FED2F682F6E30080083122D
:100FEE000313BB01B701B801B901BA0183018A111C
:020FFE00082DBC
:00000001FF
