:020000040000FA
:100000008A11DF2FFF1B0C2883137F18831700082A
:10001000840A0319FF0A080000308A000408840AD1
:100020008207003445347334633472346934623483
:100030006534203444346934723465346334633451
:1000400069346F346E3400344F347034633469343F
:100050006F346E34203449346E34763461346C3409
:100060006934643461340034453473346334723435
:100070006934623465342034763461346C346F34DE
:10008000723400344E347534653476346F34203431
:10009000563461346C346F34723400345334613408
:1000A0006C34693465346E3464346F340034203415
:1000B000523450344D34003420344634313400341A
:1000C000203446343234003420346D3476340034F5
:1000D0003A3420340034203456340034831203136D
:1000E000A9008A282908BF3E8A15B4258A119D28AF
:1000F0002908933E8A15B4258A119D282908D33EE4
:100100008A15B4258A119D2829087F3E8A15B425B1
:100110008A119D282608A700A8012808003A03197B
:10012000922884282708023A03197228013A0319F1
:100130007828073A03197E288428080083120313BD
:10014000A2007C18A428A828831203138716AB28C2
:1001500083120313871222080139A000A00E06089B
:100160002006EF39200686002208A0000310200C8C
:100170000139A100A10EA10D06082106DF392106D3
:1001800086002208A00002300310A00CFF3E031DD1
:10019000C42820080139A100A10EA10DA10D060857
:1001A0002106BF39210686002208A0000330031073
:1001B000A00CFF3E031DD72820080139A100A10C87
:1001C000A10C060821067F39210686008713E8283E
:1001D000E928EA28EB28831203138717EF28F02871
:1001E000F128F2288312031387139F30831203131D
:1001F000A000FA28A00BF928FD28000008008312AF
:100200000313B0002908AE002808AD002B08A10098
:100210002A08A0002E08A3002D08A2008A15FE2699
:100220008A11831203132108AE002008AD000130AB
:10023000AC002C08B0072D082E04031D202921290D
:10024000062930088400831380010130B0022B0896
:10025000A1002A08A0002908A3002808A2008A15E6
:1002600083268A11831203132008AC002C08AF00E8
:100270002B08A1002A08A0002908A3002808A20032
:100280008A15FE268A11831203132108A90020086B
:10029000A8000A302F02031C4E294F29532907308A
:1002A000AC002C08AF073030AC002C08AF072F088B
:1002B000AC00300884002C08831380000130B002A9
:1002C00028082904031D6529662927290130AC0067
:1002D0002C08B0070800031083120313220D230D0E
:1002E000A4002408AA002A08031D77297829812957
:1002F0000030A3000030A2000030A1000030A000B8
:10030000E6292008A4002108A5002208A600230849
:10031000A7001F300310A70CA60CA50CA40CFF3ED1
:10032000031D8A292408A8002808A900A217FF3065
:10033000A005FF30A105FF30A2050030A3059630CF
:10034000AA02AA1FA429A529BF292A08803A973EF4
:100350000318AB29AC29AD29782901300310A30C6F
:10036000A20CA10CA00CFF3E031DAE290130A4007D
:100370002408AA07031DBD29BE29AD29D62920308E
:100380002A02031CC429C529D12978290130A400D7
:100390000310A00DA10DA20DA30DA40BC8290130BF
:1003A000AA022A08031DD529D629C6292908031916
:1003B000DA29DB29E629A009A109A209A309A00AD3
:1003C0000319A10A0319A20A0319A30A08003A3063
:1003D0008400A03083120313AC000408AD000E307B
:1003E000AE002C08840083130008AF00AC0A2D086F
:1003F00084002F088000AD0AAE0BF1293030840054
:10040000B830AC000408AD000A30AE002C088400FF
:1004100083130008AF00AC0A2D0884002F08800069
:10042000AD0AAE0B062A01308A15B4258A11831253
:1004300003132A032B04031D1E2A1F2A282A5A30BD
:10044000A0008030A1003A308A15E2258A11472A9F
:1004500002302A062B04031D2E2A2F2A382A4B305D
:10046000A0008030A1003A308A15E2258A11472A7F
:1004700003302A062B04031D3E2A3F2A472A4F3009
:10048000A0008030A1003A308A15E2258A1183123B
:100490000313A601A60A01308A116E208A113A3090
:1004A00083120313A3000030A4008A15BF268A110B
:1004B000023083120313AC002C08A60001308A110D
:1004C0006E208A11303083120313A3000030A40081
:1004D0008A15BF268A11080083120313AD00742AFF
:1004E0000130A8002808AD072D0884008A110C20CF
:1004F0008A11203A03197D2A7E2A702A2D08840049
:100500008A110C208A11093A0319872A882A702A2D
:10051000AB01AC01AA012D0884008A110C208A11BC
:100520002D3A031D942A952A9E2A0130A8002808F6
:10053000AA070130A8002808AD07D12A2D08840099
:100540008A110C208A112B3A031DA72AA82AD12A26
:100550000130A8002808AD07D12A831203132C0804
:10056000A1002B08A0000A30A2000030A3008A15C9
:100570008D258A11831203132D0884008A110C2003
:100580008A112007A8000030031801302107A900B4
:100590002808D03EAB0029080318013EFF3EAC00FE
:1005A000A82A2D0884008A110C208A118A15E924B2
:1005B0008A110318DC2ADD2AAD2A831203132A08C4
:1005C0000319E32AE42AF02A2B09A8002C09A90020
:1005D000A80A0319A90A2808A6002908A700F42ACE
:1005E0002C08A7002B08A600080001308A15B425A6
:1005F0008A1183120313A601A60A01308A116E2004
:100600008A11233083120313A3008030A4008A15BB
:10061000BF268A118A112B268A1183120313AE007A
:100620002E08B10031088A116C228A11831203133B
:100630002708E7002608E6000230AE002E08A600D4
:1006400001308A116E208A118312031331088A1532
:1006500012258A11033083120313B0000830AF0053
:100660007630AE00AE0B322BAF0B322BB00B322BF1
:10067000392B01308A15B4258A1183120313A60180
:10068000A60A01308A116E208A11013083120313E9
:10069000A3008030A4008A15BF268A118A112B2658
:1006A0008A1183120313AE002E08B10031088A119B
:1006B0006C228A11831203132708E5002608E40040
:1006C0000230AE002E08A60001308A116E208A1179
:1006D0008312031331088A1512258A1103308312FD
:1006E0000313B0000830AF007630AE00AE0B762BAF
:1006F000AF0B762BB00B762B7D2B01308A15B425F2
:100700008A110800013083120313FA000030FB0045
:100710008A154B268A118A15FD248A118A116E25A5
:100720008A11163083120313AA000030AB00DF30A9
:10073000DA005A08AC008A15A0278A11D03083123B
:100740000313DB00C930DA00DA0BA42BDB0BA42B7C
:100750000000263083120313AA000030AB00C23021
:10076000DA005A08AC008A15A0278A11D03083120B
:100770000313DB00C930DA00DA0BBC2BDB0BBC2B1C
:100780000000053083120313AA000030AB00F630DE
:10079000DA005A08AC008A15A0278A11D0308312DB
:1007A0000313DB00C930DA00DA0BD42BDB0BD42BBC
:1007B000000083120313A601A60A01308A116E20DD
:1007C0008A11033083120313DC000830DB0076301B
:1007D000DA00DA0BE92BDB0BE92BDC0BE92BF02B36
:1007E0008A1548258A1183120313DA005A08DD009E
:1007F0005D088A1512258A11831203135D088A1178
:1008000003278A11033083120313DC007030DB00EE
:100810005C30DA00DA0B0A2CDB0B0A2CDC0B0A2C1E
:10082000F02B8A11002883120313BF0001308A15B0
:10083000B4258A1183120313A601A60A01308A1176
:100840006E208A113130831203133F06031D292CB9
:100850002A2C782C3130A3008030A4008A15BF26C2
:100860008A11023083120313B8003808A600013041
:100870008A116E208A11403083120313BE00A33008
:10088000BD00D730BC000A30BB00C0018A11F52280
:100890008A11831203133E08A3003D08A2003C08FE
:1008A000A1003B08A0008A116B218A118312031357
:1008B0002108B2002008B1000A30B3000030B400B3
:1008C00040308A1569258A11533083120313A00022
:1008D0008030A10040308A15E2258A114030831211
:1008E0000313A3000030A4008A15BF268A11B32C7D
:1008F00032303F06031D7D2C7E2C992C3D30A30009
:100900008030A4008A15BF268A1103308312031396
:10091000BA000830B9007630B800B80B8D2CB90B8E
:100920008D2CBA0B8D2C942C01308A15B4258A118C
:10093000B32C1330A3008030A4008A15BF268A117F
:10094000033083120313BA000830B9007630B800C0
:10095000B80BA82CB90BA82CBA0BA82CAF2C0130C3
:100960008A15B4258A11080001308A15B4258A1128
:1009700043308400AE3083120313BF000408C0006C
:100980000A30C1003F08840083130008C200BF0A78
:100990004008840042088000C00AC10BC22C4D30C0
:1009A00084006F088000840A70088000840A71083F
:1009B0008000840A72088000840A73088000D201D3
:1009C000D301D401A601A60A01308A116E208A1132
:1009D000831203133A08A3003908A2003808A100C3
:1009E0003708A0008A116B218A1183120313210892
:1009F000B2002008B1000A30B3000030B400523019
:100A00008A1569258A11523083120313A000003021
:100A1000A10043308A15E2258A1143308312031363
:100A2000A3000030A4008A15BF268A110230831269
:100A30000313BF003F08A60001308A116E208A11FF
:100A4000831203133E08B2003D08B1000A30B30020
:100A50000030B40053308A1569258A11533083124F
:100A60000313A0000030A1004D308A15E2258A1141
:100A7000573083120313A0008030A1004D308A1537
:100A8000E2258A11831203133C08B2003B08B1002F
:100A90000A30B3000030B40054308A1569258A1139
:100AA000543083120313A0000030A1004D308A158A
:100AB000E2258A11463083120313A0008030A10082
:100AC0004D308A15E2258A114D3083120313A3009D
:100AD0000030A4008A15BF268A1108008312031370
:100AE0007C108712071387130612861206138613CB
:100AF0008316031387120713871306128612061331
:100B00008613023083120313A800A030A70092308E
:100B1000A600A60B892DA70B892DA80B892D0330C4
:100B20008A15B4258A11343083120313A700F130DB
:100B3000A600A60B992DA70B992D000003308A154E
:100B4000B4258A11343083120313A700F130A600B4
:100B5000A60BA82DA70BA82D000003308A15B425DD
:100B60008A11343083120313A700F130A600A60BBC
:100B7000B72DA70BB72D000002308A15B4258A11B6
:100B8000343083120313A700F130A600A60BC62D44
:100B9000A70BC62D000028308A15B4258A11033012
:100BA00083120313A8000830A7007630A600A60B16
:100BB000D72DA70BD72DA80BD72DDE2D0C308A15DE
:100BC000B4258A11033083120313A8000830A7004C
:100BD0007630A600A60BEA2DA70BEA2DA80BEA2D6E
:100BE000F12D01308A15B4258A11033083120313C5
:100BF000A8000830A7007630A600A60BFD2DA70B95
:100C0000FD2DA80BFD2D042E06308A15B4258A1162
:100C1000033083120313A8000830A7007630A60023
:100C2000A60B102EA70B102EA80B102E172E0F3070
:100C30008A15B4258A11033083120313A8000830E3
:100C4000A7007630A600A60B232EA70B232EA80BF9
:100C5000232E2A2E080083120313871407108512EF
:100C600005124F3083120313A000A00B352E000095
:100C700083120313871C3D2E3E2E622E0718412E31
:100C8000422E622E851A452E462E622E051A492EB8
:100C90004A2E622E051C4D2E4E2E502E2A30022F2B
:100CA000851C532E542E562E3030022F051D592EE2
:100CB0005A2E5C2E2330022F851D5F2E602E622E51
:100CC0004430022F87100714851205124F3083120B
:100CD0000313A000A00B6A2E0000831203138718D1
:100CE000722E732E972E071C762E772E972E851A2E
:100CF0007A2E7B2E972E051A7E2E7F2E972E051C80
:100D0000822E832E852E3130022F851C882E892E2F
:100D10008B2E3230022F051D8E2E8F2E912E3330CA
:100D2000022F851D942E952E972E4330022F87106B
:100D30000710851605124F3083120313A000A00B75
:100D40009F2E0000831203138718A72EA82ECC2EE7
:100D50000718AB2EAC2ECC2E851EAF2EB02ECC2E6F
:100D6000051AB32EB42ECC2E051CB72EB82EBA2ED3
:100D70003430022F851CBD2EBE2EC02E3530022FE2
:100D8000051DC32EC42EC62E3630022F851DC92E3A
:100D9000CA2ECC2E4230022F87100710851205165E
:100DA0004F3083120313A000A00BD42E0000831237
:100DB00003138718DC2EDD2E012F0718E02EE12EFD
:100DC000012F851AE42EE52E012F051EE82EE92EAF
:100DD000012F051CEC2EED2EEF2E3730022F851C37
:100DE000F22EF32EF52E3830022F051DF82EF92E97
:100DF000FB2E3930022F851DFE2EFF2E012F413094
:100E0000022F7830080083120313D9005908D50047
:100E10005508D80041305906031D0F2F102F552FAC
:100E20007A037B04031D152F162F322F3F30BA0093
:100E30008C30B900CC30B800CD30B700E830BB0002
:100E40000330BC000130BD000030BE008A11B42464
:100E50008A11013083120313FA070318FB0A0030CA
:100E6000FB07DE2F02307A067B04031D382F392F53
:100E7000DE2F4030BA000C30B900CC30B800CD3095
:100E8000B700E830BB000330BC000230BD000030CA
:100E9000BE008A11B4248A11FF3083120313FA07AB
:100EA0000318FB0AFF30FB07DE2F42305906031DF3
:100EB0005A2F5B2F732F0130AA000030AB008A112C
:100EC000E7218A118A1548258A1183120313D50058
:100ED0005508D9005808D5005508B70059088A1197
:100EE00013248A11DE2F43305906031D782F792FE2
:100EF000912F0230AA000030AB008A11E7218A113D
:100F00008A1548258A1183120313D5005508D90084
:100F10005808D5005508B70059088A1113248A11BA
:100F2000DE2F44305906031D962F972FAF2F033025
:100F3000AA000030AB008A11E7218A118A154825E2
:100F40008A1183120313D5005508D9005808D5001B
:100F50005508B70059088A1113248A11DE2F590841
:100F60008A116C228A118312031326088A152925F7
:100F70008A11831203135908D5005508EE008A150B
:100F8000A8248A11A0308A15D5248A11831203134C
:100F90006E088A15D5248A118A15B6248A1105305F
:100FA00083120313D7000F30D600F030D500D50BD5
:100FB000D72FD60BD72FD70BD72FDE2F08008313B1
:100FC000FC30FD000F30FE004430FF00A0308400F4
:100FD0008A15C8248A117A30FD000C30FE009D303D
:100FE000FF006F3084008A15C8248A115E308400A7
:100FF0006F308A1595248A11FC0183018A11822B96
:10192A0064008001840A0406031900340406962C14
:10193A00563465346C34203400341634003426347A
:10194A00003405340034831603131419AD2CAE2C5D
:10195A00A82C11081F39031DB32CB42CA82C111460
:10196A000800831603131419BB2CBC2CB62C1108BF
:10197A001F39031DC12CC22CB62C111508007E0874
:10198A008A007F0882008A15C4248A158000840A86
:10199A0004087D0603190034FF0A0319FE0AC82C3D
:1019AA0083120313A000831603131419DD2CDE2CF3
:1019BA00D82C11081F39031DE32CE42CD82C8312D0
:1019CA00031320089300080083120313A100A00147
:1019DA003A3021020318F22CF32CFB2C303021026E
:1019EA00031CF82CF92CFB2CA001A00A200C0800DF
:1019FA0083120313850186018701831603130710D7
:101A0A0087108715071607130514851405158515FC
:101A1A000512851207309F00080083120313A400E1
:101A2A007C142408A30004300310A30CFF3E031DFA
:101A3A00192D23088A119E208A158312031324085C
:101A4A008A119E208A15080083120313A1006400DC
:101A5A00831603178C18322D352D831203132C2D60
:101A6A00831203132108831203178D003F30831258
:101A7A000313A0002008831603178C050C14831285
:101A8A0003170C080800783083120313A1002108F9
:101A9A00A200572D8A112B268A1583120313A1003F
:101AAA002108A2007830220603195C2D5D2D4F2DE6
:101ABA008A112B268A15783A031D642D652D5D2D12
:101ACA00831203132208080083120313B600B21FFD
:101ADA006F2D702D802D2D30B50036088400350805
:101AEA00831380000130B5003508B607B109B20981
:101AFA00B10A0319B20A3208A9003108A800340849
:101B0A00AB003308AA0036088A11FF208A1508009C
:101B1A0083120313A401A501201C942D952D9B2D3E
:101B2A002208A4070318A50A2308A50701300310F1
:101B3A00A20DA30DFF3E031D9C2D01300310A10C25
:101B4A00A00CFF3E031DA32D20082104031DAE2D6A
:101B5A00AF2D912D2508A1002408A00008008312AA
:101B6A000313A5007C102508A30004300310A30C5E
:101B7A00FF3E031DBB2D23088A119E208A1583125E
:101B8A00031325088A119E208A158312031325033D
:101B9A000319D02DD12DD72D02302506031DD62DA0
:101BAA00D72DE12D153083120313A400C630A300EC
:101BBA00A30BDD2DA40BDD2D080083120313A40053
:101BCA002408A2002208A300EE2D0130A200220858
:101BDA00A3072308840083130008031DF52DF62D9F
:101BEA00EA2D012E0130A2002208A3070130A00726
:101BFA000318A10A0030A1072108FF002008840069
:101C0A008A1102208A15A20023088400220883135D
:101C1A0080000008031D122E132EF72D08008312D0
:101C2A000313A200831603178C181C2E1D2E172EC1
:101C3A00831203132208831203178D0083120313DE
:101C4A002008831203178C003F3083120313A1006C
:101C5A002108831603178C058312031303108B1FA5
:101C6A00372E382E392E03148B13831603170C15AF
:101C7A0055308D00AA308D008C140C118312031379
:101C8A00031C482E492E4A2E8B1708000430831253
:101C9A000313A3002308A00000308A1514268A150E
:101CAA00053083120313A3002308A00001308A150C
:101CBA0014268A15033083120313A3002308A000F5
:101CCA0002308A1514268A1583120313A001A00A6A
:101CDA0003308A1514268A15023083120313A300CF
:101CEA002308A00004308A1514268A1583120313C8
:101CFA00A00105308A1514268A15080083120313D9
:101D0A002008210403198A2E8B2EBA2EA501A50AB2
:101D1A00992E01300310A00DA10DFF3E031D8F2E39
:101D2A000130A4002408A507A11F9C2E9D2E8E2EEB
:101D3A0021082302031DA32E20082202031CA62E1B
:101D4A00A72EAD2E2008A2022108031CA303A3027A
:101D5A0001300310A10CA00CFF3E031DAE2E013072
:101D6A00A502031DB92EBA2E9D2E2308A100220812
:101D7A00A000080083120313A6017C14EE2E260885
:101D8A002307840024080318240AFF008A1102206A
:101D9A008A15A50004300310A50CFF3E031DD02EA2
:101DAA0025088A119E208A15831203132608230701
:101DBA00840024080318240AFF008A1102208A15C5
:101DCA008A119E208A15013083120313A500250863
:101DDA00A60726082307840024080318240AFF00FC
:101DEA008A1102208A15003A031DFC2EFD2EC42EEC
:101DFA00080083120313A501A60120082104031970
:101E0A00072F082F3F2FA701A70A162F013003100B
:101E1A00A00DA10DFF3E031D0C2F0130A4002408C4
:101E2A00A707A11F192F1A2F0B2F01300310A50D79
:101E3A00A60DFF3E031D1B2F21082302031D272F7A
:101E4A0020082202031C2A2F2B2F322F2008A2023D
:101E5A002108031CA303A302251401300310A10CBB
:101E6A00A00CFF3E031D332F0130A702031D3E2F96
:101E7A003F2F1A2F2608A1002508A0000800433486
:101E8A0061346D34623469346134723420346334B9
:101E9A006F346E3464342E34003456346F346C34F8
:101EAA00743461346A3465343A3420340034313459
:101EBA002E3453346934203432342E344E346F3451
:101ECA0000344A346F3473346534203452346F34F6
:101EDA006434723469346734753465347A3420343E
:101EEA00793420344B34613472346C3461342034A4
:101EFA0052346534793465347334003448346F3479
:101F0A006C34613420344D3475346E3464346F3437
:101F1A0020346234693465346E34763465346E3410
:101F2A00693464346F3421340034333443345634DE
:101F3A0031343634003483120313A601A60A013061
:101F4A008A116E208A15831203132C08A30000300D
:101F5A00A4008A15BF268A15023083120313AF0024
:101F6A000430AE00BA30AD00AD0BB92FAE0BB92FAD
:101F7A00AF0BB92F83120313B001B101DB2F183055
:101F8A008A15B4258A15D03083120313AE00C930DE
:101F9A00AD00AD0BCE2FAE0BCE2F00000130831259
:101FAA000313B0070318B10A0030B1073108803AA9
:101FBA00AD002B08803A2D02031DE52F2A083002B6
:101FCA00031CE82FE92FC42F683083120313AE00D5
:101FDA00E430AD00AD0BEF2FAE0BEF2F01308A15B9
:101FEA00B4258A1583120313A601A60A01308A11A1
:061FFA006E208A150800AC
:02400E00393F38
:00000001FF
