:020000040000FA
:100000008A11DA2FFF1B0C2883137F18831700082F
:10001000840A0319FF0A080000308A000408840AD1
:10002000820700342034523450344D3400342034AC
:1000300046343134003420344634323400343A34D7
:0A004000203400342034563400341C
:10007C007E088A007F0882008A113E208A11800047
:10008C00840A04087D0603190034FF0A0319FE0ACA
:10009C004228563465346C34203400341634003421
:1000AC00263400340534003433344334563431347C
:1000BC0036340034831203138501860187018316BD
:1000CC0003130710871087110712071305148514E3
:1000DC00051585150512851207309F00080083123F
:1000EC000313A40078142408A30004300310A30CF9
:1000FC00FF3E031D7C2823088A11CB228A11831210
:10010C00031324088A11CB228A1108007830831239
:10011C000313A1002108A2009B288A1102278A112F
:10012C0083120313A1002108A200783022060319C0
:10013C00A028A12893288A1102278A11783A031D36
:10014C00A828A928A12883120313220808008312C7
:10015C000313B600B21FB328B428C4282D30B50041
:10016C00360884003508831380000130B50035084B
:10017C00B607B109B209B10A0319B20A3208A900CB
:10018C003108A8003408AB003308AA0036088A11DD
:10019C002C238A11080083120313A500781025085C
:1001AC00A30004300310A30CFF3E031DD828230822
:1001BC008A11CB228A118312031325088A11CB22B0
:1001CC008A118312031325030319ED28EE28F42852
:1001DC0002302506031DF328F428FE28153083125F
:1001EC000313A400C630A300A30BFA28A40BFA280F
:1001FC00080083120313A9001B292908BF3E8A118A
:10020C00D1208A112E292908933E8A11D1208A11D6
:10021C002E292908D33E8A11D1208A112E2929088A
:10022C007F3E8A11D1208A112E292608A700A80109
:10023C002808003A0319232915292708023A03191B
:10024C000329013A03190929073A03190F2915291A
:10025C00080083120313A4002408A2002208A300A0
:10026C003B290130A2002208A30723088400831332
:10027C000008031D4229432937294E290130A200C9
:10028C002208A3070130A0070318A10A0030A10718
:10029C002108FF00200884008A1102208A11A20084
:1002AC00230884002208831380000008031D5F29A3
:1002BC0060294429080083120313A600A5017814B1
:1002CC008A2925082607A300230884000008A40017
:1002DC0004300310A40CFF3E031D6F2924088A115F
:1002EC00CB228A118312031325082607A3002308A7
:1002FC008400831300088A11CB228A1101308312E7
:10030C000313A3002308A50725082607A300230829
:10031C00840083130008031D94299529672908007C
:10032C00831203132008210403199D299E29CD292A
:10033C00A501A50AAC2901300310A00DA10DFF3EAB
:10034C00031DA2290130A4002408A507A11FAF2971
:10035C00B029A12921082302031DB6292008220255
:10036C00031CB929BA29C0292008A2022108031CA0
:10037C00A303A30201300310A10CA00CFF3E031D2C
:10038C00C1290130A502031DCC29CD29B029230890
:10039C00A1002208A000080083120313A501A601E6
:1003AC00200821040319DB29DC29132AA701A70A39
:1003BC00EA2901300310A00DA10DFF3E031DE02919
:1003CC000130A4002408A707A11FED29EE29DF297D
:1003DC0001300310A50DA60DFF3E031DEF292108CA
:1003EC002302031DFB2920082202031CFE29FF29DE
:1003FC00062A2008A2022108031CA303A302251429
:10040C0001300310A10CA00CFF3E031D072A013084
:10041C00A702031D122A132AEE292608A10025087B
:10042C00A0000800433461346D34623469346134A3
:10043C007234203463346F346E3464342E340034AC
:10044C0056346F346C34743461346A3465343A34F1
:10045C002034003431342E34533469342034323463
:10046C002E344E346F3400344A346F347334653464
:10047C00203452346F3464347234693467347534D4
:10048C0065347A342034793420344B34613472340A
:10049C006C346134203452346534793465347334BB
:1004AC00003448346F346C34613420344D3475343A
:1004BC006E3464346F3420346234693465346E3491
:1004CC00763465346E34693464346F3421340034DA
:1004DC0083120313A601A60A01308A11FF208A1188
:1004EC00831203132C088A1161218A1102308312A2
:1004FC000313AF000430AE00BA30AD00AD0B842A4C
:10050C00AE0B842AAF0B842A83120313B001B10102
:10051C00A62A18308A11D1208A11D03083120313E5
:10052C00AE00C930AD00AD0B992AAE0B992A000074
:10053C00013083120313B0070318B10A0030B1075E
:10054C003108803AAD002B08803A2D02031DB02AE9
:10055C002A083002031CB32AB42A8F2A683083126B
:10056C000313AE00E430AD00AD0BBA2AAE0BBA2AC1
:10057C0001308A11D1208A1183120313A601A60A15
:10058C0001308A11FF208A11080083120313A20084
:10059C007818D12AD52A831203138716D82A8312E6
:1005AC000313871222080139A000A00E06082006AA
:1005BC00EF39200686002208A0000310200C013918
:1005CC00A100A10EA10D06082106DF392106860027
:1005DC002208A00002300310A00CFF3E031DF12ADC
:1005EC0020080139A100A10EA10DA10D06082106BC
:1005FC00BF39210686002208A00003300310A00C8E
:10060C00FF3E031D042B20080139A100A10CA10CF5
:10061C00060821067F39210686008713152B162B19
:10062C00172B182B8312031387171C2B1D2B1E2B18
:10063C001F2B8312031387139F3083120313A00005
:10064C00272BA00B262B2A2B000008008312031348
:10065C00B0002908AE002808AD002B08A1002A081C
:10066C00A0002E08A3002D08A2008A11D2218A1105
:10067C00831203132108AE002008AD000130AC003A
:10068C002C08B0072D082E04031D4D2B4E2B332B9D
:10069C0030088400831380010130B0022B08A100C4
:1006AC002A08A0002908A3002808A2008A11962174
:1006BC008A11831203132008AC002C08AF002B08FE
:1006CC00A1002A08A0002908A3002808A2008A116A
:1006DC00D2218A11831203132108A9002008A80033
:1006EC000A302F02031C7B2B7C2B802B0730AC0099
:1006FC002C08AF073030AC002C08AF072F08AC002B
:10070C00300884002C08831380000130B0022808C4
:10071C002904031D922B932B542B0130AC002C0875
:10072C00B007080083120313D50041305506031D92
:10073C00A02BA12BE62B76037704031DA62BA72B4E
:10074C00C32B3F30BA008C30B900CC30B800CD3060
:10075C00B700E830BB000330BC000130BD000030F6
:10076C00BE008A1195258A11013083120313F607F6
:10077C000318F70A0030F7070F2C023076067704BF
:10078C00031DC92BCA2B0F2C4030BA000C30B900FA
:10079C00CC30B800CD30B700E830BB000330BC0023
:1007AC000230BD000030BE008A1195258A11FF3041
:1007BC0083120313F6070318F70AFF30F7070F2C01
:1007CC0042305506031DEB2BEC2BF42B0130AA0009
:1007DC000030AB008A1110248A110F2C43305506BF
:1007EC00031DF92BFA2B022C0230AA000030AB00AF
:1007FC008A1110248A110F2C44305506031D072C26
:10080C00082C0F2C0330AA000030AB008A111024E6
:10081C008A1108003A308400A03083120313AC0014
:10082C000408AD000E30AE002C08840083130008C1
:10083C00AF00AC0A2D0884002F088000AD0AAE0B67
:10084C001A2C30308400B830AC000408AD000A30EB
:10085C00AE002C08840083130008AF00AC0A2D08EE
:10086C0084002F088000AD0AAE0B2F2C01308A11AA
:10087C00D1208A11831203132A032B04031D472C46
:10088C00482C512C1130A0008030A1003A308A1134
:10089C002F218A11702C02302A062B04031D572C91
:1008AC00582C612C0630A0008030A1003A308A11FF
:1008BC002F218A11702C03302A062B04031D672C60
:1008CC00682C702C0A30A0008030A1003A308A11BC
:1008DC002F218A1183120313A601A60A01308A1153
:1008EC00FF208A113A308A1161218A110230831259
:1008FC000313AC002C08A60001308A11FF208A11CA
:10090C0030308A1161218A110800031083120313FD
:10091C00220D230DA4002408AA002A08031D972CDD
:10092C00982CA12C0030A3000030A2000030A100B4
:10093C000030A000062D2008A4002108A5002208E4
:10094C00A6002308A7001F300310A70CA60CA50CAB
:10095C00A40CFF3E031DAA2C2408A8002808A900FB
:10096C00A217FF30A005FF30A105FF30A205003013
:10097C00A3059630AA02AA1FC42CC52CDF2C2A086A
:10098C00803A973E0318CB2CCC2CCD2C982C0130D4
:10099C000310A30CA20CA10CA00CFF3E031DCE2C2B
:1009AC000130A4002408AA07031DDD2CDE2CCD2C5D
:1009BC00F62C20302A02031CE42CE52CF12C982C6C
:1009CC000130A4000310A00DA10DA20DA30DA40BCA
:1009DC00E82C0130AA022A08031DF52CF62CE62C73
:1009EC0029080319FA2CFB2C062DA009A109A20930
:1009FC00A309A00A0319A10A0319A20A0319A30A3D
:100A0C000800013083120313F6000030F7008A113E
:100A1C0060208A118A1145268A111630831203131D
:100A2C00AA000030AB00DF30D6005608AC008A11AB
:100A3C006E228A11D03083120313D700C930D6002E
:100A4C00D60B262DD70B262D000026308312031330
:100A5C00AA000030AB00C230D6005608AC008A1198
:100A6C006E228A11D03083120313D700C930D600FE
:100A7C00D60B3E2DD70B3E2D0000053083120313F1
:100A8C00AA000030AB006530D6005608AC008A11C5
:100A9C006E228A11D03083120313D700C930D600CE
:100AAC00D60B562DD70B562D000083120313A6011F
:100ABC00A60A01308A11FF208A1103308312031316
:100ACC00D8000830D7007630D600D60B6B2DD70B5C
:100ADC006B2DD80B6B2D722D8A118C208A118312E1
:100AEC000313D6005608D90059088A1175208A11AB
:100AFC008312031359088A1198238A111530831213
:100B0C000313D8004B30D700BE30D600D60B8C2D3B
:100B1C00D70B8C2DD80B8C2D722D8A1100280130FF
:100B2C008A11D1208A1143308400AE308312031312
:100B3C00BF000408C0000A30C1003F0884008313C2
:100B4C000008C200BF0A4008840042088000C00AA6
:100B5C00C10BA32D4D3084005A088000840A5B0819
:100B6C008000840A5C088000840A5D088000840A86
:100B7C005E088000D201D301D401A601A60A01307F
:100B8C008A11FF208A11831203133A08A300390833
:100B9C00A2003808A1003708A0008A118B248A1102
:100BAC00831203132108B2002008B1000A30B300ED
:100BBC000030B40052308A11AD208A1152308312A9
:100BCC000313A0000030A10043308A112F218A1199
:100BDC0043308A1161218A11023083120313BF0042
:100BEC003F08A60001308A11FF208A1183120313DB
:100BFC003E08B2003D08B1000A30B3000030B4002A
:100C0C0053308A11AD208A11533083120313A00084
:100C1C000030A1004D308A112F218A110E30831221
:100C2C000313A0008030A1004D308A112F218A11AE
:100C3C00831203133C08B2003B08B1000A30B30026
:100C4C000030B40054308A11AD208A115430831214
:100C5C000313A0000030A1004D308A112F218A11FE
:100C6C00013083120313A0008030A1004D308A1193
:100C7C002F218A114D308A1161218A1108008312AB
:100C8C0003137810871207138713061286120613A4
:100C9C008613831603138712071387130612861203
:100CAC0006138613023083120313A800A030A7008A
:100CBC009230A600A60B602EA70B602EA80B602E00
:100CCC0003308A11D1208A11343083120313A70008
:100CDC00F130A600A60B702EA70B702E000003306F
:100CEC008A11D1208A11343083120313A700F130FA
:100CFC00A600A60B7F2EA70B7F2E000003308A11B7
:100D0C00D1208A11343083120313A700F130A600CE
:100D1C00A60B8E2EA70B8E2E000002308A11D1202E
:100D2C008A11343083120313A700F130A600A60BEE
:100D3C009D2EA70B9D2E000028308A11D1208A11E0
:100D4C00033083120313A8000830A7007630A600E6
:100D5C00A60BAE2EA70BAE2EA80BAE2EB52E0C30BE
:100D6C008A11D1208A11033083120313A800083092
:100D7C00A7007630A600A60BC12EA70BC12EA80B80
:100D8C00C12EC82E01308A11D1208A110330831252
:100D9C000313A8000830A7007630A600A60BD42EAB
:100DAC00A70BD42EA80BD42EDB2E06308A11D12003
:100DBC008A11033083120313A8000830A700763081
:100DCC00A600A60BE72EA70BE72EA80BE72EEE2E00
:100DDC000F308A11D1208A11033083120313A8001B
:100DEC000830A7007630A600A60BFA2EA70BFA2E19
:100DFC00A80BFA2E012F0800831203138714071077
:100E0C00851205124F3083120313A000A00B0C2F78
:100E1C00000083120313871C142F152F392F07186A
:100E2C00182F192F392F851A1C2F1D2F392F051A02
:100E3C00202F212F392F051C242F252F272F5A30F7
:100E4C00D92F851C2A2F2B2F2D2F3030D92F051D54
:100E5C00302F312F332F3D30D92F851D362F372F83
:100E6C00392F4430D92F87100714851205124F30B3
:100E7C0083120313A000A00B412F00008312031355
:100E8C008718492F4A2F6E2F071C4D2F4E2F6E2F70
:100E9C00851A512F522F6E2F051A552F562F6E2F44
:100EAC00051C592F5A2F5C2F3130D92F851C5F2FE1
:100EBC00602F622F3230D92F051D652F662F682FBA
:100ECC003330D92F851D6B2F6C2F6E2F4330D92FBC
:100EDC0087100710851605124F3083120313A000DC
:100EEC00A00B762F00008312031387187E2F7F2F01
:100EFC00A32F0718822F832FA32F851E862F872FB2
:100F0C00A32F051A8A2F8B2FA32F051C8E2F8F2F03
:100F1C00912F3430D92F851C942F952F972F353046
:100F2C00D92F051D9A2F9B2F9D2F3630D92F851D1C
:100F3C00A02FA12FA32F4230D92F87100710851275
:100F4C0005164F3083120313A000A00BAB2F00002B
:100F5C00831203138718B32FB42FD82F0718B72F6A
:100F6C00B82FD82F851ABB2FBC2FD82F051EBF2FFB
:100F7C00C02FD82F051CC32FC42FC62F3730D92F05
:100F8C00851CC92FCA2FCC2F3830D92F051DCF2F38
:100F9C00D02FD22F3930D92F851DD52FD62FD82F22
:100FAC004130D92F783008008313F630FD00023021
:100FBC00FE001830FF00A03084008A1142208A11F4
:100FCC006B30FD000030FE004F30FF005A308400C3
:100FDC008A1142208A11EB01EC01ED01EE01EF01C7
:100FEC00F001F101F201F301F401F501F8018301C3
:040FFC008A11072D22
:02400E00393F38
:00000001FF
