:020000040000FA
:100000008A11DF2FFF1B0C2883137F18831700082A
:10001000840A0319FF0A080000308A000408840AD1
:100020008207003445347334633472346934623483
:100030006534203444346934723465346334633451
:1000400069346F346E3400344F347034633469343F
:100050006F346E34203449346E34763461346C3409
:100060006934643461340034453473346334723435
:100070006934623465342034763461346C346F34DE
:10008000723400344E347534653476346F34203431
:10009000563461346C346F34723400345334613408
:1000A0006C34693465346E3464346F340034203415
:1000B000523450344D34003420344634313400341A
:1000C000203446343234003420346D3476340034F5
:1000D0003A3420340034203456340034831203136D
:1000E000A100A0013A30210203187728782880283F
:1000F00030302102031C7D287E288028A001A00A20
:10010000200C080083120313A601A60A01308A15E9
:1001100012268A11831203132C08A3000030A400B6
:100120008A151F278A11023083120313AF0004308F
:10013000AE00BA30AD00AD0B9B28AE0B9B28AF0BC9
:100140009B2883120313B001B101BD2818308A1512
:10015000E4258A11D03083120313AE00C930AD00FC
:10016000AD0BB028AE0BB028000001308312031392
:10017000B0070318B10A0030B1073108803AAD006A
:100180002B08803A2D02031DC7282A083002031CC1
:10019000CA28CB28A628683083120313AE00E430A7
:1001A000AD00AD0BD128AE0BD12801308A15E42566
:1001B0008A1183120313A601A60A01308A1512269A
:1001C0008A11080083120313A2007918E828EC288A
:1001D000831203138716EF28831203138712220852
:1001E0000139A000A00E06082006EF39200686007F
:1001F0002208A0000310200C0139A100A10EA10DBE
:1002000006082106DF39210686002208A0000230F8
:100210000310A00CFF3E031D082920080139A1008E
:10022000A10EA10DA10D06082106BF3921068600E9
:100230002208A00003300310A00CFF3E031D1B2961
:1002400020080139A100A10CA10C060821067F3964
:100250002106860087132C292D292E292F29831268
:1002600003138717332934293529362983120313B9
:1002700087139F3083120313A0003E29A00B3D2952
:1002800041290000080083120313B0002908AE00C2
:100290002808AD002B08A1002A08A0002E08A30002
:1002A0002D08A2008A155E278A11831203132108E4
:1002B000AE002008AD000130AC002C08B0072D08BE
:1002C0002E04031D642965294A29300884008313FC
:1002D00080010130B0022B08A1002A08A0002908E3
:1002E000A3002808A2008A15E3268A1183120313AB
:1002F0002008AC002C08AF002B08A1002A08A000A1
:100300002908A3002808A2008A155E278A118312F3
:1003100003132108A9002008A8000A302F02031C9B
:100320009229932997290730AC002C08AF07303069
:10033000AC002C08AF072F08AC00300884002C0854
:10034000831380000130B00228082904031DA92965
:10035000AA296B290130AC002C08B0070800013035
:100360008A15E4258A1183120313A601A60A013017
:100370008A1512268A11233083120313A3008030BA
:10038000A4008A151F278A1135308A1129238A1162
:10039000831203132708E3002608E2000230AE00B0
:1003A0002E08A60001308A1512268A1135308A15CA
:1003B00061258A11033083120313B0000830AF00A7
:1003C0007630AE00AE0BE229AF0BE229B00BE2298A
:1003D000E92901308A15E4258A1183120313A60145
:1003E000A60A01308A1512268A11013083120313DE
:1003F000A3008030A4008A151F278A1135308A1186
:1004000029238A11831203132708E1002608E0003C
:100410000230AE002E08A60001308A1512268A117D
:1004200035308A1561258A11033083120313B00019
:100430000830AF007630AE00AE0B1C2AAF0B1C2A82
:10044000B00B1C2A232A01308A15E4258A110800E2
:10045000031083120313220D230DA4002408AA0005
:100460002A08031D342A352A3E2A0030A300003012
:10047000A2000030A1000030A000A32A2008A400A0
:100480002108A5002208A6002308A7001F3003109A
:10049000A70CA60CA50CA40CFF3E031D472A24089C
:1004A000A8002808A900A217FF30A005FF30A10569
:1004B000FF30A2050030A3059630AA02AA1F612AC8
:1004C000622A7C2A2A08803A973E0318682A692AF9
:1004D0006A2A352A01300310A30CA20CA10CA00C2F
:1004E000FF3E031D6B2A0130A4002408AA07031D48
:1004F0007A2A7B2A6A2A932A20302A02031C812A1C
:10050000822A8E2A352A0130A4000310A00DA10DE5
:10051000A20DA30DA40B852A0130AA022A08031DEF
:10052000922A932A832A29080319972A982AA32A08
:10053000A009A109A209A309A00A0319A10A031984
:10054000A20A0319A30A08003A308400A0308312DB
:100550000313AC000408AD000E30AE002C0884007C
:1005600083130008AF00AC0A2D0884002F08800018
:10057000AD0AAE0BAE2A30308400B830AC000408AF
:10058000AD000A30AE002C08840083130008AF00D1
:10059000AC0A2D0884002F088000AD0AAE0BC32AD8
:1005A00001308A15E4258A11831203132A032B04D0
:1005B000031DDB2ADC2AE52A5A30A0008030A10086
:1005C0003A308A1542268A11042B02302A062B045F
:1005D000031DEB2AEC2AF52A4B30A0008030A10045
:1005E0003A308A1542268A11042B03302A062B043E
:1005F000031DFB2AFC2A042B4F30A0008030A100F1
:100600003A308A1542268A1183120313A601A60ADC
:1006100001308A1512268A113A3083120313A3007F
:100620000030A4008A151F278A1102308312031399
:10063000AC002C08A60001308A1512268A11303031
:1006400083120313A3000030A4008A151F278A1108
:10065000080083120313AD00312B0130A8002808D5
:10066000AD072D0884008A110C208A11203A031945
:100670003A2B3B2B2D2B2D0884008A110C208A113C
:10068000093A0319442B452B2D2BAB01AC01AA01D0
:100690002D0884008A110C208A112D3A031D512B3C
:1006A000522B5B2B0130A8002808AA070130A800B4
:1006B0002808AD078E2B2D0884008A110C208A1182
:1006C0002B3A031D642B652B8E2B0130A8002808C4
:1006D000AD078E2B831203132C08A1002B08A0005A
:1006E0000A30A2000030A3008A15BD258A118312AA
:1006F00003132D0884008A110C208A112007A800FA
:100700000030031801302107A9002808D03EAB00B3
:1007100029080318013EFF3EAC00652B2D0884001C
:100720008A110C208A118A116E208A110318992BC4
:100730009A2B6A2B831203132A080319A02BA12BCF
:10074000AD2B2B09A8002C09A900A80A0319A90A96
:100750002808A6002908A700B12B2C08A7002B0801
:10076000A6000800013083120313F7000030F800E0
:100770008A15AB268A118A154C258A118A114A26B8
:100780008A11163083120313AA000030AB00DF3049
:10079000D8005808AC008A1182208A11D030831208
:1007A0000313D900C930D800D80BD42BD90BD42BC4
:1007B0000000263083120313AA000030AB00C230C1
:1007C000D8005808AC008A1182208A11D0308312D8
:1007D0000313D900C930D800D80BEC2BD90BEC2B64
:1007E0000000053083120313AA000030AB00F6307E
:1007F000D8005808AC008A1182208A11D0308312A8
:100800000313D900C930D800D80B042CD90B042C01
:10081000000083120313A601A60A01308A151226CE
:100820008A11033083120313DA000830D9007630BE
:10083000D800D80B192CD90B192CDA0B192C202C19
:100840008A1578258A1183120313D8005808DB0013
:100850005B088A1561258A11831203135B088A11CC
:10086000E4248A11033083120313DA007030D900B4
:100870005C30D800D80B3A2CD90B3A2CDA0B3A2C36
:10088000202C8A11002883120313BF0001308A151F
:10089000E4258A1183120313A601A60A01308A15E2
:1008A00012268A113130831203133F06031D592C7F
:1008B0005A2CA82C3130A3008030A4008A151F27A1
:1008C0008A11023083120313B8003808A6000130E1
:1008D0008A1512268A11403083120313BE00A330FA
:1008E000BD00D730BC000A30BB00C0018A11AF2167
:1008F0008A11831203133E08A3003D08A2003C089E
:10090000A1003B08A0008A1128228A118312031338
:100910002108B2002008B1000A30B3000030B40052
:1009200040308A1599258A11533083120313A00091
:100930008030A10040308A1542268A11403083124F
:100940000313A3000030A4008A151F278A11E32C8B
:1009500032303F06031DAD2CAE2CC92C3D30A30018
:100960008030A4008A151F278A11033083120313D5
:10097000BA000830B9007630B800B80BBD2CB90BFE
:10098000BD2CBA0BBD2CC42C01308A15E4258A116C
:10099000E32C1330A3008030A4008A151F278A118E
:1009A000033083120313BA000830B9007630B80060
:1009B000B80BD82CB90BD82CBA0BD82CDF2C0130A3
:1009C0008A15E4258A11080083120313D7005708FB
:1009D000D5005508D60041305706031DF02CF12CE8
:1009E000362D77037804031DF62CF72C132D3F309A
:1009F000BA008C30B900CC30B800CD30B700E83048
:100A0000BB000330BC000130BD000030BE008A11C5
:100A100090258A11013083120313F7070318F80A8F
:100A20000030F8078F2D023077067804031D192D4A
:100A30001A2D8F2D4030BA000C30B900CC30B800E0
:100A4000CD30B700E830BB000330BC000230BD0041
:100A50000030BE008A1190258A11FF3083120313E3
:100A6000F7070318F80AFF30F8078F2D42305706B2
:100A7000031D3B2D3C2D542D0130AA000030AB004E
:100A80008A11A4228A118A1578258A1183120313E8
:100A9000D5005508D7005608D5005508B7005708A7
:100AA0008A1143248A118F2D43305706031D592D77
:100AB0005A2D722D0230AA000030AB008A11A422F8
:100AC0008A118A1578258A1183120313D5005508D7
:100AD000D7005608D5005508B70057088A11432497
:100AE0008A118F2D44305706031D772D782D8F2DB9
:100AF0000330AA000030AB008A11A4228A118A15A3
:100B000078258A1183120313D5005508D70056089B
:100B1000D5005508B70057088A1143248A110800E8
:100B200001308A15E4258A1143308400AE308312E7
:100B30000313BF000408C0000A30C1003F0884004E
:100B400083130008C200BF0A4008840042088000E6
:100B5000C00AC10B9E2D4D3084006C088000840AB1
:100B60006D088000840A6E088000840A6F08800087
:100B7000840A70088000D201D301D401A601A60A1C
:100B800001308A1512268A11831203133A08A30032
:100B90003908A2003808A1003708A0008A112822CD
:100BA0008A11831203132108B2002008B1000A3011
:100BB000B3000030B40052308A1599258A115230A2
:100BC00083120313A0000030A10043308A1542268F
:100BD0008A11433083120313A3000030A4008A1546
:100BE0001F278A11023083120313BF003F08A6009B
:100BF00001308A1512268A11831203133E08B200AF
:100C00003D08B1000A30B3000030B40053308A15FB
:100C100099258A11533083120313A0000030A100DC
:100C20004D308A1542268A11573083120313A000D3
:100C30008030A1004D308A1542268A118312031399
:100C40003C08B2003B08B1000A30B3000030B400E9
:100C500054308A1599258A11543083120313A00049
:100C60000030A1004D308A1542268A114630831289
:100C70000313A0008030A1004D308A1542268A114E
:100C80004D3083120313A3000030A4008A151F27E0
:100C90008A11080083120313791087120713871330
:100CA0000612861206138613831603138712071380
:100CB000871306128612061386130230831203135B
:100CC000A800A030A7009230A600A60B652EA70BA7
:100CD000652EA80B652E03308A15E4258A11343061
:100CE00083120313A700F130A600A60B752EA70BE5
:100CF000752E000003308A15E4258A1134308312E2
:100D00000313A700F130A600A60B842EA70B842E98
:100D1000000003308A15E4258A113430831203134E
:100D2000A700F130A600A60B932EA70B932E000070
:100D300002308A15E4258A11343083120313A70088
:100D4000F130A600A60BA22EA70BA22E0000283081
:100D50008A15E4258A11033083120313A800083092
:100D6000A7007630A600A60BB32EA70BB32EA80BB8
:100D7000B32EBA2E0C308A15E4258A110330831263
:100D80000313A8000830A7007630A600A60BC62ED5
:100D9000A70BC62EA80BC62ECD2E01308A15E42532
:100DA0008A11033083120313A8000830A70076309D
:100DB000A600A60BD92EA70BD92EA80BD92EE02E54
:100DC00006308A15E4258A11033083120313A80024
:100DD0000830A7007630A600A60BEC2EA70BEC2E51
:100DE000A80BEC2EF32E0F308A15E4258A11033060
:100DF00083120313A8000830A7007630A600A60BC4
:100E0000FF2EA70BFF2EA80BFF2E062F0800831224
:100E1000031387140710851205124F308312031332
:100E2000A000A00B112F000083120313871C192FA1
:100E30001A2F3E2F07181D2F1E2F3E2F851A212FE8
:100E4000222F3E2F051A252F262F3E2F051C292F36
:100E50002A2F2C2F2A30DE2F851C2F2F302F322FB8
:100E60003030DE2F051D352F362F382F2330DE2F63
:100E7000851D3B2F3C2F3E2F4430DE2F871007145B
:100E8000851205124F3083120313A000A00B462FCA
:100E900000008312031387184E2F4F2F732F071C48
:100EA000522F532F732F851A562F572F732F051A32
:100EB0005A2F5B2F732F051C5E2F5F2F612F313050
:100EC000DE2F851C642F652F672F3230DE2F051D26
:100ED0006A2F6B2F6D2F3330DE2F851D702F712FF2
:100EE000732F4330DE2F87100710851605124F3001
:100EF00083120313A000A00B7B2F000083120313A7
:100F00008718832F842FA82F0718872F882FA82FA3
:100F1000851E8B2F8C2FA82F051A8F2F902FA82F6F
:100F2000051C932F942F962F3430DE2F851C992F7C
:100F30009A2F9C2F3530DE2F051D9F2FA02FA22F1B
:100F40003630DE2F851DA52FA62FA82F4230DE2F8D
:100F500087100710851205164F3083120313A00067
:100F6000A00BB02F0000831203138718B82FB92FDE
:100F7000DD2F0718BC2FBD2FDD2F851AC02FC12FE5
:100F8000DD2F051EC42FC52FDD2F051CC82FC92F2F
:100F9000CB2F3730DE2F851CCE2FCF2FD12F3830DF
:100FA000DE2F051DD42FD52FD72F3930DE2F851DED
:100FB000DA2FDB2FDD2F4130DE2F7830080083134E
:100FC000FC30FD000F30FE00A430FF00A030840094
:100FD0008A153F258A117730FD000D30FE00303034
:100FE000FF006C3084008A153F258A115C30840034
:100FF0006C308A1528258A11F90183018A11B22BD8
:101A500064008001840A0406031900340406292D59
:101A6000563465346C342034003416340034263453
:101A70000034053400347E088A007F0882008A150D
:101A80003B258A158000840A04087D06031900346A
:101A9000FF0A0319FE0A3F2D8312031385018601F5
:101AA0008701831603130710871087110712071386
:101AB00005148514051585150512851207309F003C
:101AC000080083120313A40079142408A30004302F
:101AD0000310A30CFF3E031D682D23088A11E2208A
:101AE0008A158312031324088A11E2208A1508003C
:101AF000783083120313A1002108A200872D8A11D8
:101B000007278A1583120313A1002108A200783049
:101B1000220603198C2D8D2D7F2D8A1107278A15FA
:101B2000783A031D942D952D8D2D831203132208D1
:101B3000080083120313B600B21F9F2DA02DB02DF5
:101B40002D30B5003608840035088313800001303D
:101B5000B5003508B607B109B209B10A0319B20ACE
:101B60003208A9003108A8003408AB003308AA00E5
:101B700036088A1143218A15080083120313A40131
:101B8000A501201CC42DC52DCB2D2208A4070318A8
:101B9000A50A2308A50701300310A20DA30DFF3EDF
:101BA000031DCC2D01300310A10CA00CFF3E031D22
:101BB000D32D20082104031DDE2DDF2DC12D250886
:101BC000A1002408A000080083120313A5007910C7
:101BD0002508A30004300310A30CFF3E031DEB2DCA
:101BE00023088A11E2208A158312031325088A111B
:101BF000E2208A158312031325030319002E012EF8
:101C0000072E02302506031D062E072E112E153035
:101C100083120313A400C630A300A30B0D2EA40B44
:101C20000D2E080083120313A9002E2E2908BF3E93
:101C30008A15E4258A15412E2908933E8A15E42544
:101C40008A15412E2908D33E8A15E4258A15412E8E
:101C500029087F3E8A15E4258A15412E2608A7000B
:101C6000A8012808003A0319362E282E2708023A20
:101C70000319162E013A03191C2E073A0319222EB6
:101C8000282E080083120313A4002408A2002208AF
:101C9000A3004E2E0130A2002208A30723088400CF
:101CA00083130008031D552E562E4A2E612E013037
:101CB000A2002208A3070130A0070318A10A0030E0
:101CC000A1072108FF00200884008A1102208A153C
:101CD000A200230884002208831380000008031D4B
:101CE000722E732E572E080083120313A200831640
:101CF00003178C187C2E7D2E772E83120313220857
:101D0000831203178D008312031320088312031715
:101D10008C003F3083120313A100210883160317A0
:101D20008C058312031303108B1F972E982E992E68
:101D300003148B13831603170C1555308D00AA302E
:101D40008D008C140C1183120313031CA82EA92ED2
:101D5000AA2E8B170800043083120313A300230854
:101D6000A00000308A1574268A15053083120313EB
:101D7000A3002308A00001308A1574268A150330B9
:101D800083120313A3002308A00002308A157426CF
:101D90008A1583120313A001A00A03308A15742642
:101DA0008A15023083120313A3002308A000043015
:101DB0008A1574268A1583120313A00105308A152B
:101DC00074268A15080083120313200821040319BE
:101DD000EA2EEB2E1A2FA501A50AF92E01300310C9
:101DE000A00DA10DFF3E031DEF2E0130A40024081D
:101DF000A507A11FFC2EFD2EEE2E21082302031D98
:101E0000032F20082202031C062F072F0D2F200866
:101E1000A2022108031CA303A30201300310A10C9A
:101E2000A00CFF3E031D0E2F0130A502031D192F2C
:101E30001A2FFD2E2308A1002208A00008008312FB
:101E40000313A60179144E2F2608230784002408C3
:101E50000318240AFF008A1102208A15A500043005
:101E60000310A50CFF3E031D302F25088A11E22028
:101E70008A158312031326082307840024080318F5
:101E8000240AFF008A1102208A158A11E2208A158D
:101E9000013083120313A5002508A607260823078F
:101EA000840024080318240AFF008A1102208A15DE
:101EB000003A031D5C2F5D2F242F080083120313AB
:101EC000A501A601200821040319672F682F9F2F61
:101ED000A701A70A762F01300310A00DA10DFF3E28
:101EE000031D6C2F0130A4002408A707A11F792F20
:101EF0007A2F6B2F01300310A50DA60DFF3E031D99
:101F00007B2F21082302031D872F20082202031C98
:101F10008A2F8B2F922F2008A2022108031CA303D3
:101F2000A302251401300310A10CA00CFF3E031DD9
:101F3000932F0130A702031D9E2F9F2F7A2F260873
:101F4000A1002508A0000800433461346D346234D8
:101F5000693461347234203463346F346E346434E1
:101F60002E34003456346F346C34743461346A3433
:101F700065343A342034003431342E3453346934E7
:101F8000203432342E344E346F3400344A346F34BB
:101F900073346534203452346F34643472346934A9
:101FA0006734753465347A342034793420344B34D2
:101FB000613472346C346134203452346534793491
:101FC00065347334003448346F346C3461342034F5
:101FD0004D3475346E3464346F3420346234693473
:101FE00065346E34763465346E34693464346F34F9
:101FF00021340034333443345634313436340034ED
:02400E00393F38
:00000001FF
