:020000040000FA
:100000008A11DF2FFF1B0C2883137F18831700082A
:10001000840A0319FF0A080000308A000408840AD1
:100020008207003445347334633472346934623483
:100030006534203444346934723465346334633451
:1000400069346F346E3400344F347034633469343F
:100050006F346E34203449346E34763461346C3409
:100060006934643461340034453473346334723435
:100070006934623465342034763461346C346F34DE
:10008000723400344E347534653476346F34203431
:10009000563461346C346F34723400345334613408
:1000A0006C34693465346E3464346F340034203415
:1000B000523450344D34003420344634313400341A
:1000C000203446343234003420346D3476340034F5
:1000D0003A3420340034203456340034831203136D
:1000E00020082104031975287628A528A501A50A4A
:1000F000842801300310A00DA10DFF3E031D7A28B6
:100100000130A4002408A507A11F87288828792882
:1001100021082302031D8E2820082202031C912897
:10012000922898282008A2022108031CA303A302F6
:1001300001300310A10CA00CFF3E031D99280130D3
:10014000A502031DA428A52888282308A1002208A9
:10015000A000080083120313A2007C18B028B42862
:10016000831203138716B7288312031387122208FA
:100170000139A000A00E06082006EF3920068600EF
:100180002208A0000310200C0139A100A10EA10D2E
:1001900006082106DF39210686002208A000023069
:1001A0000310A00CFF3E031DD02820080139A10038
:1001B000A10EA10DA10D06082106BF39210686005A
:1001C0002208A00003300310A00CFF3E031DE3280B
:1001D00020080139A100A10CA10C060821067F39D5
:1001E000210686008713F428F528F628F7288312BD
:1001F00003138717FB28FC28FD28FE28831203130E
:1002000087139F3083120313A0000629A00B052932
:1002100009290000080083120313B0002908AE006A
:100220002808AD002B08A1002A08A0002E08A30072
:100230002D08A2008A15FE268A11831203132108B5
:10024000AE002008AD000130AC002C08B0072D082E
:100250002E04031D2C292D29122930088400831314
:1002600080010130B0022B08A1002A08A000290853
:10027000A3002808A2008A116E208A11831203139A
:100280002008AC002C08AF002B08A1002A08A00011
:100290002908A3002808A2008A15FE268A118312C5
:1002A00003132108A9002008A8000A302F02031C0C
:1002B0005A295B295F290730AC002C08AF07303082
:1002C000AC002C08AF072F08AC00300884002C08C5
:1002D000831380000130B00228082904031D71290E
:1002E000722933290130AC002C08B0070800031034
:1002F00083120313220D230DA4002408AA002A0848
:10030000031D832984298D290030A3000030A20019
:100310000030A1000030A000F2292008A40021082C
:10032000A5002208A6002308A7001F300310A70C71
:10033000A60CA50CA40CFF3E031D96292408A800BA
:100340002808A900A217FF30A005FF30A105FF3043
:10035000A2050030A3059630AA02AA1FB029B12930
:10036000CB292A08803A973E0318B729B829B9291A
:10037000842901300310A30CA20CA10CA00CFF3E99
:10038000031DBA290130A4002408AA07031DC929A6
:10039000CA29B929E22920302A02031CD029D129EF
:1003A000DD2984290130A4000310A00DA10DA20DA8
:1003B000A30DA40BD4290130AA022A08031DE129A8
:1003C000E229D22929080319E629E729F229A009F7
:1003D000A109A209A309A00A0319A10A0319A20AE3
:1003E0000319A30A08003A308400A03083120313D3
:1003F000AC000408AD000E30AE002C08840083135E
:100400000008AF00AC0A2D0884002F088000AD0A58
:10041000AE0BFD2930308400B830AC000408AD00CC
:100420000A30AE002C08840083130008AF00AC0A29
:100430002D0884002F088000AD0AAE0B122A01306F
:100440008A15C0258A11831203132A032B04031D66
:100450002A2A2B2A342A5A30A0008030A1003A30B0
:100460008A151E268A11532A02302A062B04031DE0
:100470003A2A3B2A442A4B30A0008030A1003A306F
:100480008A151E268A11532A03302A062B04031DBF
:100490004A2A4B2A532A4F30A0008030A1003A301C
:1004A0008A151E268A1183120313A601A60A01309B
:1004B0008A15EE258A113A3083120313A300003007
:1004C000A4008A15BF268A11023083120313AC00E0
:1004D0002C08A60001308A15EE258A1130308312CF
:1004E0000313A3000030A4008A15BF268A11080058
:1004F00083120313AD00802A0130A8002808AD073D
:100500002D0884008A110C208A11203A0319892AA7
:100510008A2A7C2A2D0884008A110C208A11093A23
:100520000319932A942A7C2AAB01AC01AA012D0855
:1005300084008A110C208A112D3A031DA02AA12AB9
:10054000AA2A0130A8002808AA070130A800280814
:10055000AD07DD2A2D0884008A110C208A112B3A60
:10056000031DB32AB42ADD2A0130A8002808AD07EC
:10057000DD2A831203132C08A1002B08A0000A30E7
:10058000A2000030A3008A1599258A118312031353
:100590002D0884008A110C208A112007A800003041
:1005A000031801302107A9002808D03EAB00290814
:1005B0000318013EFF3EAC00B42A2D0884008A11C6
:1005C0000C208A118A1514258A110318E82AE92AB1
:1005D000B92A831203132A080319EF2AF02AFC2AE6
:1005E0002B09A8002C09A900A80A0319A90A2808A0
:1005F000A6002908A700002B2C08A7002B08A6009E
:10060000080001308A15C0258A1183120313A60140
:10061000A60A01308A15EE258A11233083120313AE
:10062000A3008030A4008A15BF268A118A110727EB
:100630008A1183120313AE002E08B10031088A110B
:1006400078228A11831203132708E7002608E600A0
:100650000230AE002E08A60001308A15EE258A1160
:100660008312031331088A153D258A110330831242
:100670000313B0000830AF007630AE00AE0B3E2B57
:10068000AF0B3E2BB00B3E2B452B01308A15C025FE
:100690008A1183120313A601A60A01308A15EE25DA
:1006A0008A11013083120313A3008030A4008A153D
:1006B000BF268A118A1107278A1183120313AE00FD
:1006C0002E08B10031088A1178228A11831203138F
:1006D0002708E5002608E4000230AE002E08A60038
:1006E00001308A15EE258A118312031331088A1509
:1006F0003D258A11033083120313B0000830AF0088
:100700007630AE00AE0B822BAF0B822BB00B822B60
:10071000892B01308A15C0258A1108000130831207
:100720000313FA000030FB008A1587268A118A1508
:1007300028258A118A117A258A111630831203130B
:10074000AA000030AB00DF30DA005A08AC008A158E
:10075000A0278A11D03083120313DB00C930DA00DE
:10076000DA0BB02BDB0BB02B000026308312031307
:10077000AA000030AB00C230DA005A08AC008A157B
:10078000A0278A11D03083120313DB00C930DA00AE
:10079000DA0BC82BDB0BC82B0000053083120313C8
:1007A000AA000030AB00F630DA005A08AC008A1517
:1007B000A0278A11D03083120313DB00C930DA007E
:1007C000DA0BE02BDB0BE02B000083120313A601F6
:1007D000A60A01308A15EE258A110330831203130D
:1007E000DC000830DB007630DA00DA0BF52BDB0BAF
:1007F000F52BDC0BF52BFC2B8A1554258A11831263
:100800000313DA005A08DD005D088A153D258A11B8
:10081000831203135D088A1137268A11033083126D
:100820000313DC007030DB005C30DA00DA0B162CCE
:10083000DB0B162CDC0B162CFC2B8A1100288312E8
:100840000313BF0001308A15C0258A1183120313D8
:10085000A601A60A01308A15EE258A1131308312CD
:1008600003133F06031D352C362C842C3130A30096
:100870008030A4008A15BF268A1102308312031328
:10088000B8003808A60001308A15EE258A114030DC
:1008900083120313BE00A330BD00D730BC000A3062
:1008A000BB00C0018A1101238A11831203133E0881
:1008B000A3003D08A2003C08A1003B08A0008A114B
:1008C00077218A11831203132108B2002008B10096
:1008D0000A30B3000030B40040308A1575258A1103
:1008E000533083120313A0008030A10040308A15DA
:1008F0001E268A11403083120313A3000030A40087
:100900008A15BF268A11BF2C32303F06031D892C61
:100910008A2CA52C3D30A3008030A4008A15BF2668
:100920008A11033083120313BA000830B9007630FD
:10093000B800B80B992CB90B992CBA0B992CA02C98
:1009400001308A15C0258A11BF2C1330A3008030D6
:10095000A4008A15BF268A11033083120313BA003C
:100960000830B9007630B800B80BB42CB90BB42CF1
:10097000BA0BB42CBB2C01308A15C0258A11080093
:1009800001308A15C0258A1143308400AE308312AD
:100990000313BF000408C0000A30C1003F088400F0
:1009A00083130008C200BF0A400884004208800088
:1009B000C00AC10BCE2C4D3084006F088000840A21
:1009C00070088000840A71088000840A7208800020
:1009D000840A73088000D201D301D401A601A60ABB
:1009E00001308A15EE258A11831203133A08A300F9
:1009F0003908A2003808A1003708A0008A11772121
:100A00008A11831203132108B2002008B1000A30B2
:100A1000B3000030B40052308A1575258A11523067
:100A200083120313A0000030A10043308A151E2654
:100A30008A11433083120313A3000030A4008A15E7
:100A4000BF268A11023083120313BF003F08A6009D
:100A500001308A15EE258A11831203133E08B20075
:100A60003D08B1000A30B3000030B40053308A159D
:100A700075258A11533083120313A0000030A100A2
:100A80004D308A151E268A11573083120313A00099
:100A90008030A1004D308A151E268A11831203135F
:100AA0003C08B2003B08B1000A30B3000030B4008B
:100AB00054308A1575258A11543083120313A0000F
:100AC0000030A1004D308A151E268A11463083124F
:100AD0000313A0008030A1004D308A151E268A1114
:100AE0004D3083120313A3000030A4008A15BF26E3
:100AF0008A110800831203137C10871207138713CF
:100B00000612861206138613831603138712071321
:100B100087130612861206138613023083120313FC
:100B2000A800A030A7009230A600A60B952DA70B19
:100B3000952DA80B952D03308A15C0258A113430C8
:100B400083120313A700F130A600A60BA52DA70B57
:100B5000A52D000003308A15C0258A113430831278
:100B60000313A700F130A600A60BB42DA70BB42DDC
:100B7000000003308A15C0258A1134308312031314
:100B8000A700F130A600A60BC32DA70BC32D0000B4
:100B900002308A15C0258A11343083120313A7004E
:100BA000F130A600A60BD22DA70BD22D00002830C5
:100BB0008A15C0258A11033083120313A800083058
:100BC000A7007630A600A60BE32DA70BE32DA80BFC
:100BD000E32DEA2D0C308A15C0258A1103308312CB
:100BE0000313A8000830A7007630A600A60BF62D48
:100BF000A70BF62DA80BF62DFD2D01308A15C0256B
:100C00008A11033083120313A8000830A70076303E
:100C1000A600A60B092EA70B092EA80B092E102E35
:100C200006308A15C0258A11033083120313A800E9
:100C30000830A7007630A600A60B1C2EA70B1C2E92
:100C4000A80B1C2E232E0F308A15C0258A110330C5
:100C500083120313A8000830A7007630A600A60B65
:100C60002F2EA70B2F2EA80B2F2E362E0800831207
:100C70000313D9005908D5005508D800413059064A
:100C8000031D432E442E892E7A037B04031D492E17
:100C90004A2E662E3F30BA008C30B900CC30B800F6
:100CA000CD30B700E830BB000330BC000130BD00E0
:100CB0000030BE008A11C0248A1101308312031350
:100CC000FA070318FB0A0030FB07062F02307A06EA
:100CD0007B04031D6C2E6D2E062F4030BA000C30A5
:100CE000B900CC30B800CD30B700E830BB000330DD
:100CF000BC000230BD000030BE008A11C0248A1141
:100D0000FF3083120313FA070318FB0AFF30FB07B7
:100D1000062F42305906031D8E2E8F2EA72E01302E
:100D2000AA000030AB008A11F3218A118A155425DC
:100D30008A1183120313D5005508D9005808D5002D
:100D40005508B70059088A111F248A11062F43300D
:100D50005906031DAC2EAD2EC52E0230AA00003060
:100D6000AB008A11F3218A118A1554258A11831246
:100D70000313D5005508D9005808D5005508B70009
:100D800059088A111F248A11062F44305906031D61
:100D9000CA2ECB2EE32E0330AA000030AB008A11FE
:100DA000F3218A118A1554258A1183120313D50061
:100DB0005508D9005808D5005508B70059088A11B8
:100DC0001F248A11062F5908D5005508EE008A15F0
:100DD000D3248A11A0308A1500258A1183120313A7
:100DE0006E088A1500258A118A15E1248A110530BA
:100DF00083120313D7000F30D600F030D500D50B87
:100E0000FF2ED60BFF2ED70BFF2E062F08008312C6
:100E1000031387140710851205124F308312031332
:100E2000A000A00B112F000083120313871C192FA1
:100E30001A2F3E2F07181D2F1E2F3E2F851A212FE8
:100E4000222F3E2F051A252F262F3E2F051C292F36
:100E50002A2F2C2F2A30DE2F851C2F2F302F322FB8
:100E60003030DE2F051D352F362F382F2330DE2F63
:100E7000851D3B2F3C2F3E2F4430DE2F871007145B
:100E8000851205124F3083120313A000A00B462FCA
:100E900000008312031387184E2F4F2F732F071C48
:100EA000522F532F732F851A562F572F732F051A32
:100EB0005A2F5B2F732F051C5E2F5F2F612F313050
:100EC000DE2F851C642F652F672F3230DE2F051D26
:100ED0006A2F6B2F6D2F3330DE2F851D702F712FF2
:100EE000732F4330DE2F87100710851605124F3001
:100EF00083120313A000A00B7B2F000083120313A7
:100F00008718832F842FA82F0718872F882FA82FA3
:100F1000851E8B2F8C2FA82F051A8F2F902FA82F6F
:100F2000051C932F942F962F3430DE2F851C992F7C
:100F30009A2F9C2F3530DE2F051D9F2FA02FA22F1B
:100F40003630DE2F851DA52FA62FA82F4230DE2F8D
:100F500087100710851205164F3083120313A00067
:100F6000A00BB02F0000831203138718B82FB92FDE
:100F7000DD2F0718BC2FBD2FDD2F851AC02FC12FE5
:100F8000DD2F051EC42FC52FDD2F051CC82FC92F2F
:100F9000CB2F3730DE2F851CCE2FCF2FD12F3830DF
:100FA000DE2F051DD42FD52FD72F3930DE2F851DED
:100FB000DA2FDB2FDD2F4130DE2F7830080083134E
:100FC000FC30FD000F30FE004430FF00A0308400F4
:100FD0008A15F3248A117A30FD000C30FE00C830E7
:100FE000FF006F3084008A15F3248A115E3084007C
:100FF0006F308A15C0248A11FC0183018A118E2B5F
:1019800064008001840A0406031900340406C12C93
:10199000563465346C342034003416340034263424
:1019A000003405340034831603131419D82CD92CB1
:1019B000D32C11081F39031DDE2CDF2CD32C11145E
:1019C0000800831603131419E62CE72CE12C1108E8
:1019D0001F39031DEC2CED2CE12C111508007E089D
:1019E0008A007F0882008A15EF248A158000840A05
:1019F00004087D0603190034FF0A0319FE0AF32CBC
:101A000083120313A000831603131419082D092D44
:101A1000032D11081F39031D0E2D0F2D032D8312C9
:101A2000031320089300080083120313A100A001F0
:101A30003A30210203181D2D1E2D262D3030210293
:101A4000031C232D242D262DA001A00A200C080004
:101A50008312031385018601870183160313071080
:101A600087108715071607130514851405158515A6
:101A70000512851207309F00080083120313A4008B
:101A80007C142408A30004300310A30CFF3E031DA4
:101A9000442D23088A11AA208A15831203132408CF
:101AA0008A11AA208A150800783083120313A10036
:101AB0002108A200632D8A1107278A1583120313B8
:101AC000A1002108A200783022060319682D692D93
:101AD0005B2D8A1107278A15783A031D702D712D09
:101AE000692D831203132208080083120313B60022
:101AF000B21F7B2D7C2D8C2D2D30B5003608840037
:101B00003508831380000130B5003508B607B109E8
:101B1000B209B10A0319B20A3208A9003108A800B3
:101B20003408AB003308AA0036088A110B218A1545
:101B3000080083120313A401A501201CA02DA12DD0
:101B4000A72D2208A4070318A50A2308A50701301A
:101B50000310A20DA30DFF3E031DA82D013003109D
:101B6000A10CA00CFF3E031DAF2D20082104031D76
:101B7000BA2DBB2D9D2D2508A1002408A00008002A
:101B800083120313A5007C102508A3000430031062
:101B9000A30CFF3E031DC72D23088A11AA208A1516
:101BA0008312031325088A11AA208A1583120313AE
:101BB00025030319DC2DDD2DE32D02302506031D41
:101BC000E22DE32DED2D153083120313A400C63052
:101BD000A300A30BE92DA40BE92D08008312031326
:101BE000A9000A2E2908BF3E8A15C0258A151D2E78
:101BF0002908933E8A15C0258A151D2E2908D33E33
:101C00008A15C0258A151D2E29087F3E8A15C025F4
:101C10008A151D2E2608A700A8012808003A0319D6
:101C2000122E042E2708023A0319F22D013A031945
:101C3000F82D073A0319FE2D042E08008312031312
:101C4000A4002408A2002208A3002A2E0130A2002A
:101C50002208A3072308840083130008031D312EE4
:101C6000322E262E3D2E0130A2002208A30701307D
:101C7000A0070318A10A0030A1072108FF002008CF
:101C800084008A1102208A15A200230884002208F9
:101C9000831380000008031D4E2E4F2E332E0800A4
:101CA00083120313A200831603178C18582E592E83
:101CB000532E831203132208831203178D008312FD
:101CC00003132008831203178C003F308312031381
:101CD000A1002108831603178C0583120313031038
:101CE0008B1F732E742E752E03148B1383160317FC
:101CF0000C1555308D00AA308D008C140C118312F8
:101D00000313031C842E852E862E8B1708000430A7
:101D100083120313A3002308A00000308A15502665
:101D20008A15053083120313A3002308A000013095
:101D30008A1550268A15033083120313A300230843
:101D4000A00002308A1550268A1583120313A001C1
:101D5000A00A03308A1550268A1502308312031315
:101D6000A3002308A00004308A1550268A15831288
:101D70000313A00105308A1550268A150800831226
:101D80000313A6017C14EE2E2608230784002408E2
:101D90000318240AFF008A1102208A15A5000430C6
:101DA0000310A50CFF3E031DD02E25088A11AA2082
:101DB0008A158312031326082307840024080318B6
:101DC000240AFF008A1102208A158A11AA208A1586
:101DD000013083120313A5002508A6072608230750
:101DE000840024080318240AFF008A1102208A159F
:101DF000003A031DFC2EFD2EC42E0800831203138F
:101E0000A501A601200821040319072F082F3F2F41
:101E1000A701A70A162F01300310A00DA10DFF3E48
:101E2000031D0C2F0130A4002408A707A11F192FA0
:101E30001A2F0B2F01300310A50DA60DFF3E031D19
:101E40001B2F21082302031D272F20082202031C19
:101E50002A2F2B2F322F2008A2022108031CA303B4
:101E6000A302251401300310A10CA00CFF3E031D9A
:101E7000332F0130A702031D3E2F3F2F1A2F2608B4
:101E8000A1002508A0000800433461346D34623499
:101E9000693461347234203463346F346E346434A2
:101EA0002E34003456346F346C34743461346A34F4
:101EB00065343A342034003431342E3453346934A8
:101EC000203432342E344E346F3400344A346F347C
:101ED00073346534203452346F346434723469346A
:101EE0006734753465347A342034793420344B3493
:101EF000613472346C346134203452346534793452
:101F000065347334003448346F346C3461342034B5
:101F10004D3475346E3464346F3420346234693433
:101F200065346E34763465346E34693464346F34B9
:101F300021340034333443345634313436340034AD
:101F400083120313A601A60A01308A15EE258A150D
:101F5000831203132C08A3000030A4008A15BF26A7
:101F60008A15023083120313AF000430AE00BA307A
:101F7000AD00AD0BB92FAE0BB92FAF0BB92F83123C
:101F80000313B001B101DB2F18308A15C0258A1563
:101F9000D03083120313AE00C930AD00AD0BCE2F8D
:101FA000AE0BCE2F0000013083120313B0070318CD
:101FB000B10A0030B1073108803AAD002B08803AF1
:101FC0002D02031DE52F2A083002031CE82FE92FFC
:101FD000C42F683083120313AE00E430AD00AD0BA4
:101FE000EF2FAE0BEF2F01308A15C0258A15831213
:101FF0000313A601A60A01308A15EE258A150800EA
:02400E00393F38
:00000001FF
