:020000040000FA
:100000008A11D92FFF1B0C2883137F188317000830
:10001000840A0319FF0A080000308A000408840AD1
:10002000820700342034523450344D3400343A3492
:040030002034003444
:1001E6001634003426340034053400347E088A0080
:1001F6007F0882008A11F9208A118000840A040887
:100206007D0603190034FF0A0319FE0AFD2883122E
:1002160003138501860187018316031307108710D0
:100226008711071207130514851405158515051280
:10023600851207309F00080083120313A4007B1465
:100246002408A30004300310A30CFF3E031D262937
:1002560023088A1179238A118312031324088A1129
:1002660079238A110800783083120313A10021082C
:10027600A20045298A1101278A1183120313A100BE
:100286002108A2007830220603194A294B293D2964
:100296008A1101278A11783A031D522953294B29BD
:1002A600831203132208080083120313B600B21F39
:1002B6005D295E296E292D30B50036088400350883
:1002C600831380000130B5003508B607B109B209BD
:1002D600B10A0319B20A3208A9003108A800340885
:1002E600AB003308AA0036088A11DA238A110800FF
:1002F60083120313A5007B102508A3000430031006
:10030600A30CFF3E031D822923088A1179238A1133
:100316008312031325088A1179238A118312031382
:1003260025030319972998299E2902302506031DBE
:100336009D299E29A829153083120313A400C630CF
:10034600A300A30BA429A40BA4290800831203135A
:10035600A900C5292908BF3E8A117B218A11D829FF
:100366002908933E8A117B218A11D8292908D33E70
:100376008A117B218A11D82929087F3E8A117B217F
:100386008A11D8292608A700A8012808003A0319C7
:10039600CD29BF292708023A0319AD29013A0319C5
:1003A600B329073A0319B929BF2908008312031391
:1003B600A4002408A2002208A300E5290130A20017
:1003C6002208A3072308840083130008031DEC29D1
:1003D600ED29E129F8290130A2002208A3070130FE
:1003E600A0070318A10A0030A1072108FF00200872
:1003F60084008A1102208A11A200230884002208A0
:10040600831380000008031D092A0A2AEE29080022
:1004160083120313A600A5017B14342A2508260798
:10042600A300230884000008A40004300310A40CD1
:10043600FF3E031D192A24088A1179238A11831283
:10044600031325082607A300230884008313000846
:100456008A1179238A11013083120313A30023081A
:10046600A50725082607A300230884008313000890
:10047600031D3E2A3F2A112A08008312031320086F
:1004860021040319472A482A772AA501A50A562ACC
:1004960001300310A00DA10DFF3E031D4C2A0130B3
:1004A600A4002408A507A11F592A5A2A4B2A210865
:1004B6002302031D602A20082202031C632A642AE1
:1004C6006A2A2008A2022108031CA303A302013002
:1004D6000310A10CA00CFF3E031D6B2A0130A502E0
:1004E600031D762A772A5A2A2308A1002208A0008B
:1004F600080083120313A501A6012008210403198D
:10050600852A862ABD2AA701A70A942A0130031044
:10051600A00DA10DFF3E031D8A2A0130A400240868
:10052600A707A11F972A982A892A01300310A50D2B
:10053600A60DFF3E031D992A21082302031DA52AA5
:1005460020082202031CA82AA92AB02A2008A202EF
:100556002108031CA303A302251401300310A10CD8
:10056600A00CFF3E031DB12A0130A702031DBC2AC1
:10057600BD2A982A2608A1002508A000080056349E
:1005860065346C34203400340034003400340034D4
:10059600003400340034003400340034003456345F
:1005A6006F346C34743461346A3465343A342034CC
:1005B60000340034003400340034003400344A344B
:1005C6006F3473346534203452346F346434723487
:1005D60069346734753465347A3420347934203498
:1005E6004B34613472346C346134203452346534A3
:1005F600793465347334003448346F346C34613480
:1006060020344D3475346E3464346F34203462349F
:10061600693465346E34763465346E3469346434E2
:100626006F34213400343334433456343134363461
:10063600003483120313A601A60A01308A11A921E8
:100646008A11831203132C088A110B228A11023095
:1006560083120313AF000430AE00BA30AD00AD0B09
:10066600322BAE0B322BAF0B322B83120313B0019E
:10067600B101542B18308A117B218A11D030831294
:100686000313AE00C930AD00AD0B472BAE0B472BA5
:100696000000013083120313B0070318B10A0030BB
:1006A600B1073108803AAD002B08803A2D02031DB0
:1006B6005E2B2A083002031C612B622B3D2B68300F
:1006C60083120313AE00E430AD00AD0B682BAE0B06
:1006D600682B01308A117B218A1183120313A6012C
:1006E600A60A01308A11A9218A1108008312031370
:1006F600A2007B187F2B832B831203138716862B6E
:1007060083120313871222080139A000A00E0608DF
:100716002006EF39200686002208A0000310200CD0
:100726000139A100A10EA10D06082106DF39210617
:1007360086002208A00002300310A00CFF3E031D15
:100746009F2B20080139A100A10EA10DA10D0608BD
:100756002106BF39210686002208A00003300310B7
:10076600A00CFF3E031DB22B20080139A100A10CED
:10077600A10C060821067F39210686008713C32BA4
:10078600C42BC52BC62B831203138717CA2BCB2B5F
:10079600CC2BCD2B8312031387139F3083120313A5
:1007A600A000D52BA00BD42BD82B00000800831259
:1007B6000313B0002908AE002808AD002B08A100DD
:1007C6002A08A0002E08A3002D08A2008A117C2268
:1007D6008A11831203132108AE002008AD000130F0
:1007E600AC002C08B0072D082E04031DFB2BFC2B98
:1007F600E12B30088400831380010130B0022B08FE
:10080600A1002A08A0002908A3002808A2008A112E
:1008160040228A11831203132008AC002C08AF0073
:100826002B08A1002A08A0002908A3002808A20076
:100836008A117C228A11831203132108A900200839
:10084600A8000A302F02031C292C2A2C2E2C073034
:10085600AC002C08AF073030AC002C08AF072F08CF
:10086600AC00300884002C08831380000130B002ED
:1008760028082904031D402C412C022C0130AC0011
:100886002C08B0070800031083120313220D230D52
:10089600A4002408AA002A08031D522C532C5C2C01
:1008A6000030A3000030A2000030A1000030A000FC
:1008B600C12C2008A4002108A5002208A6002308B0
:1008C600A7001F300310A70CA60CA50CA40CFF3E16
:1008D600031D652C2408A8002808A900A217FF30CC
:1008E600A005FF30A105FF30A2050030A305963014
:1008F600AA02AA1F7F2C802C9A2C2A08803A973E9F
:100906000318862C872C882C532C01300310A30C3B
:10091600A20CA10CA00CFF3E031D892C0130A400E3
:100926002408AA07031D982C992C882CB12C20305A
:100936002A02031C9F2CA02CAC2C532C0130A400A3
:100946000310A00DA10DA20DA30DA40BA32C013025
:10095600AA022A08031DB02CB12CA12C29080319C0
:10096600B52CB62CC12CA009A109A209A309A00A7D
:100976000319A10A0319A20A0319A30A080043309E
:100986008400B03083120313BF000408C000103087
:10099600C1003F08840083130008C200BF0A400854
:1009A600840042088000C00AC10BCC2C533084005E
:1009B600A030BF000408C0001030C1003F0884000A
:1009C60083130008C200BF0A400884004208800062
:1009D600C00AC10BE12CA601A60A01308A11A92181
:1009E6008A11831203133A08A3003908A2003808B3
:1009F600A1003708A0008A1146248A118312031326
:100A06002108B2002008B1000A30B3000030B4005B
:100A160067308A1157218A11673083120313A000A9
:100A26000030A10043308A11D9218A1143308A113E
:100A36000B228A11023083120313BF003F08A6005F
:100A460001308A11A9218A11831203133E08B200CC
:100A56003D08B1000A30B3000030B4006A308A1194
:100A660057218A116A3083120313A0000030A100B7
:100A760053308A11D9218A11063083120313A0003C
:100A86008030A10053308A11D9218A1183120313B1
:100A96003C08B2003B08B1000A30B3000030B40095
:100AA60063308A1157218A11633083120313A00021
:100AB6000030A10053308A11D9218A1101308312E6
:100AC6000313A0008030A10053308A11D9218A1166
:100AD60053308A110B228A110800831203137B10EC
:100AE60087120713871306128612061386138316B8
:100AF600031387120713871306128612061386132B
:100B0600023083120313A800A030A7009230A6007B
:100B1600A60B8B2DA70B8B2DA80B8B2D03308A11C3
:100B26007B218A11343083120313A700F130A6000B
:100B3600A60B9B2DA70B9B2D000003308A117B2152
:100B46008A11343083120313A700F130A600A60BD6
:100B5600AA2DA70BAA2D000003308A117B218A112A
:100B6600343083120313A700F130A600A60BB92D6B
:100B7600A70BB92D000002308A117B218A1134306F
:100B860083120313A700F130A600A60BC82DA70BEE
:100B9600C82D000028308A117B218A110330831268
:100BA6000313A8000830A7007630A600A60BD92D9F
:100BB600A70BD92DA80BD92DE02D0C308A117B213E
:100BC6008A11033083120313A8000830A700763079
:100BD600A600A60BEC2DA70BEC2DA80BEC2DF32DE8
:100BE60001308A117B218A11033083120313A80076
:100BF6000830A7007630A600A60BFF2DA70BFF2D09
:100C0600A80BFF2D062E06308A117B218A11033090
:100C160083120313A8000830A7007630A600A60B9F
:100C2600122EA70B122EA80B122E192E0F308A1178
:100C36007B218A11033083120313A8000830A70012
:100C46007630A600A60B252EA70B252EA80B252E43
:100C56002C2E0800013083120313EF000030F00041
:100C66008A110A218A118A1170258A111630831277
:100C76000313AA000030AB00DD30EB006B08AC00BC
:100C86008A111C238A11D03083120313EC00C93059
:100C9600EB00EB0B4C2EEC0B4C2E00002630831297
:100CA6000313AA000030AB00C030EB006B08AC00A9
:100CB6008A111C238A11D03083120313EC00C93029
:100CC600EB00EB0B642EEC0B642E00000530831258
:100CD6000313AA000030AB00F430EB006B08AC0045
:100CE6008A111C238A11D03083120313EC00C930F9
:100CF600EB00EB0B7C2EEC0B7C2E00008312031317
:100D0600A601A60A01308A11A9218A11033083128D
:100D16000313ED000830EC007630EB00EB0B912E60
:100D2600EC0B912EED0B912E982E8A1136218A11FD
:100D360083120313EB006B08EE006E088A111F2165
:100D46008A114130831203136E06031DAB2EAC2E9F
:100D5600F02E6F037004031DB12EB22ECE2E3F303F
:100D6600BA009930B9009930B8009A30B700E83027
:100D7600BB000330BC000130BD000030BE008A114C
:100D8600C2248A11013083120313EF070318F00AF5
:100D96000030F007F02E02306F067004031DD42ECB
:100DA600D52EF02E4030BA000630B9006630B800B5
:100DB6006630B700E830BB000330BC000230BD002F
:100DC6000030BE008A11C2248A11FF308312031339
:100DD600EF070318F00AFF30F007153083120313EC
:100DE600ED004B30EC00BE30EB00EB0BF82EEC0BBD
:100DF600F82EED0BF82E982E8A1100288312031375
:100E060087140710851205124F3083120313A000B2
:100E1600A00B0B2F000083120313871C132F142F14
:100E2600382F0718172F182F382F851A1B2F1C2F0E
:100E3600382F051A1F2F202F382F051C232F242F5C
:100E4600262F5A30D82F851C292F2A2F2C2F3030A9
:100E5600D82F051D2F2F302F322F3D30D82F851D2F
:100E6600352F362F382F2B30D82F871007148512A1
:100E760005124F3083120313A000A00B402F000071
:100E8600831203138718482F492F6D2F071C4C2FE9
:100E96004D2F6D2F851A502F512F6D2F051A542F58
:100EA600552F6D2F051C582F592F5B2F3130D82FFA
:100EB600851C5E2F5F2F612F3230D82F051D642FC2
:100EC600652F672F3330D82F851D6A2F6B2F6D2F17
:100ED6002E30D82F87100710851605124F30831233
:100EE6000313A000A00B752F0000831203138718AD
:100EF6007D2F7E2FA22F0718812F822FA22F851ECE
:100F0600852F862FA22F051A892F8A2FA22F051C1F
:100F16008D2F8E2F902F3430D82F851C932F942F02
:100F2600962F3530D82F051D992F9A2F9C2F3630A6
:100F3600D82F851D9F2FA02FA22F2A30D82F87109C
:100F46000710851205164F3083120313A000A00B5D
:100F5600AA2F0000831203138718B22FB32FD72F9F
:100F66000718B62FB72FD72F851ABA2FBB2FD72F13
:100F7600051EBE2FBF2FD72F051CC22FC32FC52F6F
:100F86003730D82F851CC82FC92FCB2F3830D82FF4
:100F9600051DCE2FCF2FD12F3930D82F851DD42F19
:100FA600D52FD72F4130D82F783008008313FA3049
:100FB600FD000230FE00C230FF00A03084008A111E
:100FC600FD208A117730FD000030FE00F330FF006F
:100FD600713084008A11FD208A1183160313FA01E9
:100FE600FB01FC01FD0183120313F701F801F9016E
:0A0FF600FA01FB0183018A112D2E80
:02400E00393F38
:00000001FF
