:020000040000FA
:100000008A11E82FFF1B0C2883137F188317000821
:10001000840A0319FF0A080000308A000408840AD1
:100020008207003433342E343134323456340034C1
:1000300031342E34323435345634003433342E34A3
:10004000373435345634003434342E343334373482
:100050005634003431342E34393437345634003485
:100060003634323435346D347634003452346534B9
:1000700063342034003432342E3435345634003472
:0E00800045346E347634003430345634003457
:1004A800831203138C1A592A5A2A5B2A542A8C124B
:1004B8001A08080083120313CB000C124B0899008A
:1004C800831603139818692A6A2A6B2A642A080073
:1004D8007E088A007F0882008A116C228A118000B7
:1004E800840A04087D0603190034FF0A0319FE0A6A
:1004F800702A83120313CF0068144F08CE0004300B
:100508000310CE0CFF3E031D842A4E088A111F24B7
:100518008A11831203134F088A111F248A110800B5
:100528008030831203139F008E30831603139F00BD
:10053800831203130C1351308316031381008312A3
:1005480003138101193083160313990008008312DD
:1005580003139F121F129F111F140B3083120313D2
:10056800CE006230CD00CD0BB72ACE0BB72A83124E
:1005780003131F150C1BC12AC22AC32ABE2A1F1027
:100588000C13080083120313850186018701831663
:100598000313071487148711071207130C128C1200
:1005A80005108510051185110516851680308312F2
:1005B80003139F008E30831603139F0008007830C2
:1005C80083120313CC004C08CD00F22A8A11372677
:1005D8008A1183120313CC004C08CD0078304D06E5
:1005E8000319F72AF82AEA2A8A1137268A11783A4B
:1005F800031DFF2A002BF82A831203134D08080055
:100608008A1154228A11831603139E001E088A1128
:100618005E228A118A1154228A11831203139E00C2
:100628001E088A115E228A11831203131E08E50030
:10063800831603131E0883120313E4002530CE002B
:100648008030CF008A11E0238A118A110F278A117E
:100658000800023083120313CB000030CC008A114B
:10066800AB228A11831603131E088A115E228A118F
:100678008A1154228A1183120313CF00D0014F0824
:10068800E6005008E7001E088A115E228A118A11C6
:1006980054228A1183120313CF00D0014F08E600B9
:1006A8005008E70008002F34003445346C342034F7
:1006B80041344434433420347934203465346C3440
:1006C8002034553441345234543420344A346F344D
:1006D8007334653420345234643467347A342034C3
:1006E800793420344B34613472346C3461342034BE
:1006F8005234653479346534733400348312031307
:10070800D00068105008CE0004300310CE0CFF3E15
:10071800031D892B4E088A111F248A118312031383
:1007280050088A111F248A118312031350030319D6
:100738009E2B9F2BA52B02305006031DA42BA52B07
:10074800AF2B153083120313CF00C630CE00CE0B6B
:10075800AB2BCF0BAB2B080083120313D400CC2B8D
:100768005408BF3E8A1182238A11DF2B5408933E16
:100778008A1182238A11DF2B5408D33E8A118223DF
:100788008A11DF2B54087F3E8A1182238A11DF2BBE
:100798005108D200D3015308003A0319D42BC62BB1
:1007A8005208023A0319B42B013A0319BA2B073A33
:1007B8000319C02BC62B080083120313D101681438
:1007C8000F2C51084E0784004F0803184F0AFF00EA
:1007D8008A1102208A11D00004300310D00CFF3E89
:1007E800031DF12B50088A111F248A118312031349
:1007F80051084E0784004F0803184F0AFF008A115A
:1008080002208A118A111F248A11013083120313CE
:10081800D0005008D10751084E0784004F0803182C
:100828004F0AFF008A1102208A11003A031D1D2C6D
:100838001E2CE52B080083120313CD006818252C05
:10084800292C8312031387162C2C83120313871267
:100858004D080139CB00CB0E06084B06EF394B0685
:1008680086004D08CB0003104B0C0139CC00CC0E90
:10087800CC0D06084C06DF394C0686004D08CB0027
:1008880002300310CB0CFF3E031D452C4B080139E9
:10089800CC00CC0ECC0DCC0D06084C06BF394C064E
:1008A80086004D08CB0003300310CB0CFF3E031D20
:1008B800582C4B080139CC00CC0CCC0C06084C0643
:1008C8007F394C0686008713692C6A2C6B2C6C2C9C
:1008D800831203138717702C712C722C732C8312BC
:1008E800031387139F3083120313CB007B2CCB0B8E
:1008F8007A2C7E2C0000080083120313D101D10A40
:1009080001308A11B0238A11223083120313CE00DA
:100918000030CF008A11E0238A11033083120313B9
:10092800D7000830D6007630D500D50B992CD60BD9
:10093800992CD70B992CA02C83120313D801D90119
:1009480018308A1182238A11023083120313D700C8
:10095800A030D6009230D500D50BB02CD60BB02CD9
:10096800D70BB02C013083120313D8070318D90A08
:100978000030D9075908803AFF0080307F02031DF4
:10098800C72C28305802031CCA2CCB2CA42C0330AB
:1009980083120313D7000830D6007630D500D50B64
:1009A800D32CD60BD32CD70BD32CDA2C01308A11AD
:1009B80082238A1183120313D101D10A01308A11CB
:1009C800B0238A11080083120313DD01DE018A11A6
:1009D80094228A118A11C6228A118A117A258A11CB
:1009E8008A1180248A11153083120313DC004B30DE
:1009F800DB00BE30DA00DA0BFF2CDB0BFF2CDC0B44
:100A0800FF2C83120313D101D10A01308A11B023BC
:100A18008A11153083120313DC004B30DB00BE3023
:100A2800DA00DA0B152DDB0B152DDC0B152D8312D7
:100A380003135E08803AFF0080307F02031D262DD5
:100A480004305D020318292D2A2D602D8A11E32216
:100A58008A1183120313DA005A08DF003D305F065B
:100A68000319372D382D532D41305F0603193D2DBD
:100A78003E2D532D5F088A117D228A11831203139C
:100A88005F08DA005D08603E84005A08831380001E
:100A98000130DD070318DE0A0030DE070D2D413076
:100AA8005F06031D582D592D0D2DDD01DE01013086
:100AB8008A1182238A110D2D83120313DD01DE01B1
:100AC80020308A117D228A112F3083120313CE0021
:100AD8008030CF008A11E0238A118A1104238A11F9
:100AE8008A112D238A110D2D8A11002883120313D0
:100AF80068108712071387130612861206138613C7
:100B08008316031387120713871306128612061318
:100B18008613023083120313D300A030D200923020
:100B2800D100D10B952DD20B952DD30B952D0330DC
:100B38008A1182238A11343083120313D200F130D0
:100B4800D100D10BA52DD20BA52D000003308A11A1
:100B580082238A11343083120313D200F130D1007A
:100B6800D10BB42DD20BB42D000003308A1182238F
:100B78008A11343083120313D200F130D100D10B23
:100B8800C32DD20BC32D000002308A1182238A1193
:100B9800343083120313D200F130D100D10BD22D9F
:100BA800D20BD22D000028308A1182238A110330FB
:100BB80083120313D3000830D2007630D100D10B52
:100BC800E32DD20BE32DD30BE32DEA2D0C308A1144
:100BD80082238A11033083120313D3000830D20012
:100BE8007630D100D10BF62DD20BF62DD30BF62D86
:100BF800FD2D01308A1182238A11033083120313D9
:100C0800D3000830D2007630D100D10B092ED20B98
:100C1800092ED30B092E102E06308A1182238A1131
:100C2800033083120313D3000830D2007630D1008A
:100C3800D10B1C2ED20B1C2ED30B1C2E232E0F30A7
:100C48008A1182238A11033083120313D3000830D8
:100C5800D2007630D100D10B2F2ED20B2F2ED30BF2
:100C68002F2E362E0800831203130516851207103F
:100C780087104F3083120313CB00CB0B412E00009B
:100C880083120313051E492E4A2E6E2E851A4D2EE9
:100C98004E2E6E2E0718512E522E6E2E8718552E58
:100CA800562E6E2E051C592E5A2E5C2E41300E2FB4
:100CB800851C5F2E602E622E30300E2F051D652E8E
:100CC800662E682E3D300E2F871D6B2E6C2E6E2ED5
:100CD8002B300E2F05128516071087104F30831200
:100CE8000313CB00CB0B762E000083120313051AD7
:100CF8007E2E7F2EA32E851E822E832EA32E0718CE
:100D0800862E872EA32E87188A2E8B2EA32E051C9F
:100D18008E2E8F2E912E31300E2F851C942E952ECF
:100D2800972E32300E2F051D9A2E9B2E9D2E333076
:100D38000E2F871DA02EA12EA32E2E300E2F0512AA
:100D48008512071487104F3083120313CB00CB0B87
:100D5800AB2E000083120313051AB32EB42ED82E1F
:100D6800851AB72EB82ED82E071CBB2EBC2ED82E0F
:100D78008718BF2EC02ED82E051CC32EC42EC62EF3
:100D880034300E2F851CC92ECA2ECC2E35300E2F8E
:100D9800051DCF2ED02ED22E36300E2F871DD52EE4
:100DA800D62ED82E2A300E2F05128512071087143A
:100DB8004F3083120313CB00CB0BE02E00008312BD
:100DC8000313051AE82EE92E0D2F851AEC2EED2EA9
:100DD8000D2F0718F02EF12E0D2F871CF42EF52E4F
:100DE8000D2F051CF82EF92EFB2E37300E2F851CE3
:100DF800FE2EFF2E012F38300E2F051D042F052F34
:100E0800072F39300E2F871D0A2F0B2F0D2F2F304C
:100E18000E2F78300800831203136508803AFF000C
:100E280080307F02031D1A2F7F30640203181D2FA4
:100E38001E2F272F333083120313CE008030CF00AC
:100E48008A11E0238A11831203136508803AFF0090
:100E580080307F02031D322F80306402031C352F3F
:100E6800362F3F2F1F3083120313CE008030CF0060
:100E78008A11E0238A11831203136508803AFF0060
:100E880081307F02031D4A2F00306402031C4D2F5E
:100E98004E2F572F073083120313CE008030CF0018
:100EA8008A11E0238A11831203136508803AFF0030
:100EB80081307F02031D622F61306402031C652F9D
:100EC800662F6F2F193083120313CE008030CF00A6
:100ED8008A11E0238A11831203136508803AFF0000
:100EE80082307F02031D7A2F00306402031C7D2F9D
:100EF8007E2F872F2A3083120313CE008030CF0035
:100F08008A11E0238A11831203136508803AFF00CF
:100F180082307F02031D922F80306402031C952FBC
:100F2800962F9F2F013083120313CE008030CF00FD
:100F38008A11E0238A11831203136508803AFF009F
:100F480083307F02031DAA2F00306402031CAD2FDB
:100F5800AE2FB72F0D3083120313CE008030CF0091
:100F68008A11E0238A11831203136508803AFF006F
:100F780083307F02031DC22F7F306402031CC52FFC
:100F8800C62FCF2F133083120313CE008030CF002B
:100F98008A11E0238A11831203136508803AFF003F
:100FA80083307F02031DDA2FFF306402031CDD2F1C
:100FB800DE2FE72F2C3083120313CE008030CF00B2
:100FC8008A11E0238A11080083134B30FD00033097
:100FD800FE005730FF00203084008A1170228A11E9
:100FE800E001E101E201E301E401E501E601E701D5
:080FF800E80183018A11E72CD6
:02400E00393F38
:00000001FF
